{
	"event.sol": {
		"EventOrganization": {
			"abi": [
				{
					"inputs": [],
					"stateMutability": "nonpayable",
					"type": "constructor"
				},
				{
					"inputs": [
						{
							"internalType": "string",
							"name": "_name",
							"type": "string"
						},
						{
							"internalType": "uint256",
							"name": "_date",
							"type": "uint256"
						},
						{
							"internalType": "uint256",
							"name": "_price",
							"type": "uint256"
						},
						{
							"internalType": "uint256",
							"name": "_totalTicket",
							"type": "uint256"
						}
					],
					"name": "createEvent",
					"outputs": [],
					"stateMutability": "nonpayable",
					"type": "function"
				},
				{
					"inputs": [
						{
							"internalType": "uint256",
							"name": "",
							"type": "uint256"
						}
					],
					"name": "events",
					"outputs": [
						{
							"internalType": "address",
							"name": "organizer",
							"type": "address"
						},
						{
							"internalType": "string",
							"name": "eventName",
							"type": "string"
						},
						{
							"internalType": "uint256",
							"name": "date",
							"type": "uint256"
						},
						{
							"internalType": "uint256",
							"name": "price",
							"type": "uint256"
						},
						{
							"internalType": "uint256",
							"name": "totalTicket",
							"type": "uint256"
						},
						{
							"internalType": "uint256",
							"name": "ticketRemain",
							"type": "uint256"
						}
					],
					"stateMutability": "view",
					"type": "function"
				},
				{
					"inputs": [
						{
							"internalType": "address",
							"name": "",
							"type": "address"
						},
						{
							"internalType": "uint256",
							"name": "",
							"type": "uint256"
						}
					],
					"name": "tickets",
					"outputs": [
						{
							"internalType": "uint256",
							"name": "",
							"type": "uint256"
						}
					],
					"stateMutability": "view",
					"type": "function"
				}
			],
			"devdoc": {
				"kind": "dev",
				"methods": {},
				"version": 1
			},
			"evm": {
				"assembly": "    /* \"event.sol\":75:890  contract EventOrganization{... */\n  mstore(0x40, 0x80)\n    /* \"event.sol\":404:427  constructor(){... */\n  callvalue\n  dup1\n  iszero\n  tag_1\n  jumpi\n  0x00\n  dup1\n  revert\ntag_1:\n  pop\n    /* \"event.sol\":75:890  contract EventOrganization{... */\n  dataSize(sub_0)\n  dup1\n  dataOffset(sub_0)\n  0x00\n  codecopy\n  0x00\n  return\nstop\n\nsub_0: assembly {\n        /* \"event.sol\":75:890  contract EventOrganization{... */\n      mstore(0x40, 0x80)\n      callvalue\n      dup1\n      iszero\n      tag_1\n      jumpi\n      0x00\n      dup1\n      revert\n    tag_1:\n      pop\n      jumpi(tag_2, lt(calldatasize, 0x04))\n      shr(0xe0, calldataload(0x00))\n      dup1\n      0x0374ab0b\n      eq\n      tag_3\n      jumpi\n      dup1\n      0x0b791430\n      eq\n      tag_4\n      jumpi\n      dup1\n      0xdae7a13c\n      eq\n      tag_5\n      jumpi\n    tag_2:\n      0x00\n      dup1\n      revert\n        /* \"event.sol\":469:887  function createEvent(string memory _name,uint _date,uint _price, uint _totalTicket) external {... */\n    tag_3:\n      tag_6\n      0x04\n      dup1\n      calldatasize\n      sub\n      dup2\n      add\n      swap1\n      tag_7\n      swap2\n      swap1\n      tag_8\n      jump\t// in\n    tag_7:\n      tag_9\n      jump\t// in\n    tag_6:\n      stop\n        /* \"event.sol\":285:319  mapping(uint=>Event) public events */\n    tag_4:\n      tag_10\n      0x04\n      dup1\n      calldatasize\n      sub\n      dup2\n      add\n      swap1\n      tag_11\n      swap2\n      swap1\n      tag_12\n      jump\t// in\n    tag_11:\n      tag_13\n      jump\t// in\n    tag_10:\n      mload(0x40)\n      tag_14\n      swap7\n      swap6\n      swap5\n      swap4\n      swap3\n      swap2\n      swap1\n      tag_15\n      jump\t// in\n    tag_14:\n      mload(0x40)\n      dup1\n      swap2\n      sub\n      swap1\n      return\n        /* \"event.sol\":326:379  mapping(address=>mapping (uint=>uint)) public tickets */\n    tag_5:\n      tag_16\n      0x04\n      dup1\n      calldatasize\n      sub\n      dup2\n      add\n      swap1\n      tag_17\n      swap2\n      swap1\n      tag_18\n      jump\t// in\n    tag_17:\n      tag_19\n      jump\t// in\n    tag_16:\n      mload(0x40)\n      tag_20\n      swap2\n      swap1\n      tag_21\n      jump\t// in\n    tag_20:\n      mload(0x40)\n      dup1\n      swap2\n      sub\n      swap1\n      return\n        /* \"event.sol\":469:887  function createEvent(string memory _name,uint _date,uint _price, uint _totalTicket) external {... */\n    tag_9:\n        /* \"event.sol\":587:602  block.timestamp */\n      timestamp\n        /* \"event.sol\":581:586  _date */\n      dup4\n        /* \"event.sol\":581:602  _date>block.timestamp */\n      gt\n        /* \"event.sol\":573:644  require(_date>block.timestamp,\"You can orgnize Event for future Dates\") */\n      tag_23\n      jumpi\n      mload(0x40)\n      0x08c379a000000000000000000000000000000000000000000000000000000000\n      dup2\n      mstore\n      0x04\n      add\n      tag_24\n      swap1\n      tag_25\n      jump\t// in\n    tag_24:\n      mload(0x40)\n      dup1\n      swap2\n      sub\n      swap1\n      revert\n    tag_23:\n        /* \"event.sol\":677:678  1 */\n      0x01\n        /* \"event.sol\":663:675  _totalTicket */\n      dup2\n        /* \"event.sol\":663:678  _totalTicket>=1 */\n      lt\n      iszero\n        /* \"event.sol\":655:739  require(_totalTicket>=1,\"Total tickets for an Event should be more than equal to 1\") */\n      tag_26\n      jumpi\n      mload(0x40)\n      0x08c379a000000000000000000000000000000000000000000000000000000000\n      dup2\n      mstore\n      0x04\n      add\n      tag_27\n      swap1\n      tag_28\n      jump\t// in\n    tag_27:\n      mload(0x40)\n      dup1\n      swap2\n      sub\n      swap1\n      revert\n    tag_26:\n        /* \"event.sol\":765:827  Event(msg.sender,_name,_date,_price,_totalTicket,_totalTicket) */\n      mload(0x40)\n      dup1\n      0xc0\n      add\n      0x40\n      mstore\n      dup1\n        /* \"event.sol\":771:781  msg.sender */\n      caller\n        /* \"event.sol\":765:827  Event(msg.sender,_name,_date,_price,_totalTicket,_totalTicket) */\n      0xffffffffffffffffffffffffffffffffffffffff\n      and\n      dup2\n      mstore\n      0x20\n      add\n        /* \"event.sol\":782:787  _name */\n      dup6\n        /* \"event.sol\":765:827  Event(msg.sender,_name,_date,_price,_totalTicket,_totalTicket) */\n      dup2\n      mstore\n      0x20\n      add\n        /* \"event.sol\":788:793  _date */\n      dup5\n        /* \"event.sol\":765:827  Event(msg.sender,_name,_date,_price,_totalTicket,_totalTicket) */\n      dup2\n      mstore\n      0x20\n      add\n        /* \"event.sol\":794:800  _price */\n      dup4\n        /* \"event.sol\":765:827  Event(msg.sender,_name,_date,_price,_totalTicket,_totalTicket) */\n      dup2\n      mstore\n      0x20\n      add\n        /* \"event.sol\":801:813  _totalTicket */\n      dup3\n        /* \"event.sol\":765:827  Event(msg.sender,_name,_date,_price,_totalTicket,_totalTicket) */\n      dup2\n      mstore\n      0x20\n      add\n        /* \"event.sol\":814:826  _totalTicket */\n      dup3\n        /* \"event.sol\":765:827  Event(msg.sender,_name,_date,_price,_totalTicket,_totalTicket) */\n      dup2\n      mstore\n      pop\n        /* \"event.sol\":750:756  events */\n      0x00\n        /* \"event.sol\":750:764  events[nextId] */\n      dup1\n        /* \"event.sol\":757:763  nextId */\n      sload(0x02)\n        /* \"event.sol\":750:764  events[nextId] */\n      dup2\n      mstore\n      0x20\n      add\n      swap1\n      dup2\n      mstore\n      0x20\n      add\n      0x00\n      keccak256\n        /* \"event.sol\":750:827  events[nextId]=Event(msg.sender,_name,_date,_price,_totalTicket,_totalTicket) */\n      0x00\n      dup3\n      add\n      mload\n      dup2\n      0x00\n      add\n      exp(0x0100, 0x00)\n      dup2\n      sload\n      dup2\n      0xffffffffffffffffffffffffffffffffffffffff\n      mul\n      not\n      and\n      swap1\n      dup4\n      0xffffffffffffffffffffffffffffffffffffffff\n      and\n      mul\n      or\n      swap1\n      sstore\n      pop\n      0x20\n      dup3\n      add\n      mload\n      dup2\n      0x01\n      add\n      swap1\n      dup2\n      tag_29\n      swap2\n      swap1\n      tag_30\n      jump\t// in\n    tag_29:\n      pop\n      0x40\n      dup3\n      add\n      mload\n      dup2\n      0x02\n      add\n      sstore\n      0x60\n      dup3\n      add\n      mload\n      dup2\n      0x03\n      add\n      sstore\n      0x80\n      dup3\n      add\n      mload\n      dup2\n      0x04\n      add\n      sstore\n      0xa0\n      dup3\n      add\n      mload\n      dup2\n      0x05\n      add\n      sstore\n      swap1\n      pop\n      pop\n        /* \"event.sol\":469:887  function createEvent(string memory _name,uint _date,uint _price, uint _totalTicket) external {... */\n      pop\n      pop\n      pop\n      pop\n      jump\t// out\n        /* \"event.sol\":285:319  mapping(uint=>Event) public events */\n    tag_13:\n      mstore(0x20, 0x00)\n      dup1\n      0x00\n      mstore\n      keccak256(0x00, 0x40)\n      0x00\n      swap2\n      pop\n      swap1\n      pop\n      dup1\n      0x00\n      add\n      0x00\n      swap1\n      sload\n      swap1\n      0x0100\n      exp\n      swap1\n      div\n      0xffffffffffffffffffffffffffffffffffffffff\n      and\n      swap1\n      dup1\n      0x01\n      add\n      dup1\n      sload\n      tag_31\n      swap1\n      tag_32\n      jump\t// in\n    tag_31:\n      dup1\n      0x1f\n      add\n      0x20\n      dup1\n      swap2\n      div\n      mul\n      0x20\n      add\n      mload(0x40)\n      swap1\n      dup2\n      add\n      0x40\n      mstore\n      dup1\n      swap3\n      swap2\n      swap1\n      dup2\n      dup2\n      mstore\n      0x20\n      add\n      dup3\n      dup1\n      sload\n      tag_33\n      swap1\n      tag_32\n      jump\t// in\n    tag_33:\n      dup1\n      iszero\n      tag_34\n      jumpi\n      dup1\n      0x1f\n      lt\n      tag_35\n      jumpi\n      0x0100\n      dup1\n      dup4\n      sload\n      div\n      mul\n      dup4\n      mstore\n      swap2\n      0x20\n      add\n      swap2\n      jump(tag_34)\n    tag_35:\n      dup3\n      add\n      swap2\n      swap1\n      0x00\n      mstore\n      keccak256(0x00, 0x20)\n      swap1\n    tag_36:\n      dup2\n      sload\n      dup2\n      mstore\n      swap1\n      0x01\n      add\n      swap1\n      0x20\n      add\n      dup1\n      dup4\n      gt\n      tag_36\n      jumpi\n      dup3\n      swap1\n      sub\n      0x1f\n      and\n      dup3\n      add\n      swap2\n    tag_34:\n      pop\n      pop\n      pop\n      pop\n      pop\n      swap1\n      dup1\n      0x02\n      add\n      sload\n      swap1\n      dup1\n      0x03\n      add\n      sload\n      swap1\n      dup1\n      0x04\n      add\n      sload\n      swap1\n      dup1\n      0x05\n      add\n      sload\n      swap1\n      pop\n      dup7\n      jump\t// out\n        /* \"event.sol\":326:379  mapping(address=>mapping (uint=>uint)) public tickets */\n    tag_19:\n      mstore(0x20, 0x01)\n      dup2\n      0x00\n      mstore\n      mstore(0x20, keccak256(0x00, 0x40))\n      dup1\n      0x00\n      mstore\n      keccak256(0x00, 0x40)\n      0x00\n      swap2\n      pop\n      swap2\n      pop\n      pop\n      sload\n      dup2\n      jump\t// out\n        /* \"#utility.yul\":7:82   */\n    tag_37:\n        /* \"#utility.yul\":40:46   */\n      0x00\n        /* \"#utility.yul\":73:75   */\n      0x40\n        /* \"#utility.yul\":67:76   */\n      mload\n        /* \"#utility.yul\":57:76   */\n      swap1\n      pop\n        /* \"#utility.yul\":7:82   */\n      swap1\n      jump\t// out\n        /* \"#utility.yul\":88:205   */\n    tag_38:\n        /* \"#utility.yul\":197:198   */\n      0x00\n        /* \"#utility.yul\":194:195   */\n      dup1\n        /* \"#utility.yul\":187:199   */\n      revert\n        /* \"#utility.yul\":211:328   */\n    tag_39:\n        /* \"#utility.yul\":320:321   */\n      0x00\n        /* \"#utility.yul\":317:318   */\n      dup1\n        /* \"#utility.yul\":310:322   */\n      revert\n        /* \"#utility.yul\":334:451   */\n    tag_40:\n        /* \"#utility.yul\":443:444   */\n      0x00\n        /* \"#utility.yul\":440:441   */\n      dup1\n        /* \"#utility.yul\":433:445   */\n      revert\n        /* \"#utility.yul\":457:574   */\n    tag_41:\n        /* \"#utility.yul\":566:567   */\n      0x00\n        /* \"#utility.yul\":563:564   */\n      dup1\n        /* \"#utility.yul\":556:568   */\n      revert\n        /* \"#utility.yul\":580:682   */\n    tag_42:\n        /* \"#utility.yul\":621:627   */\n      0x00\n        /* \"#utility.yul\":672:674   */\n      0x1f\n        /* \"#utility.yul\":668:675   */\n      not\n        /* \"#utility.yul\":663:665   */\n      0x1f\n        /* \"#utility.yul\":656:661   */\n      dup4\n        /* \"#utility.yul\":652:666   */\n      add\n        /* \"#utility.yul\":648:676   */\n      and\n        /* \"#utility.yul\":638:676   */\n      swap1\n      pop\n        /* \"#utility.yul\":580:682   */\n      swap2\n      swap1\n      pop\n      jump\t// out\n        /* \"#utility.yul\":688:868   */\n    tag_43:\n        /* \"#utility.yul\":736:813   */\n      0x4e487b7100000000000000000000000000000000000000000000000000000000\n        /* \"#utility.yul\":733:734   */\n      0x00\n        /* \"#utility.yul\":726:814   */\n      mstore\n        /* \"#utility.yul\":833:837   */\n      0x41\n        /* \"#utility.yul\":830:831   */\n      0x04\n        /* \"#utility.yul\":823:838   */\n      mstore\n        /* \"#utility.yul\":857:861   */\n      0x24\n        /* \"#utility.yul\":854:855   */\n      0x00\n        /* \"#utility.yul\":847:862   */\n      revert\n        /* \"#utility.yul\":874:1155   */\n    tag_44:\n        /* \"#utility.yul\":957:984   */\n      tag_92\n        /* \"#utility.yul\":979:983   */\n      dup3\n        /* \"#utility.yul\":957:984   */\n      tag_42\n      jump\t// in\n    tag_92:\n        /* \"#utility.yul\":949:955   */\n      dup2\n        /* \"#utility.yul\":945:985   */\n      add\n        /* \"#utility.yul\":1087:1093   */\n      dup2\n        /* \"#utility.yul\":1075:1085   */\n      dup2\n        /* \"#utility.yul\":1072:1094   */\n      lt\n        /* \"#utility.yul\":1051:1069   */\n      0xffffffffffffffff\n        /* \"#utility.yul\":1039:1049   */\n      dup3\n        /* \"#utility.yul\":1036:1070   */\n      gt\n        /* \"#utility.yul\":1033:1095   */\n      or\n        /* \"#utility.yul\":1030:1118   */\n      iszero\n      tag_93\n      jumpi\n        /* \"#utility.yul\":1098:1116   */\n      tag_94\n      tag_43\n      jump\t// in\n    tag_94:\n        /* \"#utility.yul\":1030:1118   */\n    tag_93:\n        /* \"#utility.yul\":1138:1148   */\n      dup1\n        /* \"#utility.yul\":1134:1136   */\n      0x40\n        /* \"#utility.yul\":1127:1149   */\n      mstore\n        /* \"#utility.yul\":917:1155   */\n      pop\n        /* \"#utility.yul\":874:1155   */\n      pop\n      pop\n      jump\t// out\n        /* \"#utility.yul\":1161:1290   */\n    tag_45:\n        /* \"#utility.yul\":1195:1201   */\n      0x00\n        /* \"#utility.yul\":1222:1242   */\n      tag_96\n      tag_37\n      jump\t// in\n    tag_96:\n        /* \"#utility.yul\":1212:1242   */\n      swap1\n      pop\n        /* \"#utility.yul\":1251:1284   */\n      tag_97\n        /* \"#utility.yul\":1279:1283   */\n      dup3\n        /* \"#utility.yul\":1271:1277   */\n      dup3\n        /* \"#utility.yul\":1251:1284   */\n      tag_44\n      jump\t// in\n    tag_97:\n        /* \"#utility.yul\":1161:1290   */\n      swap2\n      swap1\n      pop\n      jump\t// out\n        /* \"#utility.yul\":1296:1604   */\n    tag_46:\n        /* \"#utility.yul\":1358:1362   */\n      0x00\n        /* \"#utility.yul\":1448:1466   */\n      0xffffffffffffffff\n        /* \"#utility.yul\":1440:1446   */\n      dup3\n        /* \"#utility.yul\":1437:1467   */\n      gt\n        /* \"#utility.yul\":1434:1490   */\n      iszero\n      tag_99\n      jumpi\n        /* \"#utility.yul\":1470:1488   */\n      tag_100\n      tag_43\n      jump\t// in\n    tag_100:\n        /* \"#utility.yul\":1434:1490   */\n    tag_99:\n        /* \"#utility.yul\":1508:1537   */\n      tag_101\n        /* \"#utility.yul\":1530:1536   */\n      dup3\n        /* \"#utility.yul\":1508:1537   */\n      tag_42\n      jump\t// in\n    tag_101:\n        /* \"#utility.yul\":1500:1537   */\n      swap1\n      pop\n        /* \"#utility.yul\":1592:1596   */\n      0x20\n        /* \"#utility.yul\":1586:1590   */\n      dup2\n        /* \"#utility.yul\":1582:1597   */\n      add\n        /* \"#utility.yul\":1574:1597   */\n      swap1\n      pop\n        /* \"#utility.yul\":1296:1604   */\n      swap2\n      swap1\n      pop\n      jump\t// out\n        /* \"#utility.yul\":1610:1758   */\n    tag_47:\n        /* \"#utility.yul\":1708:1714   */\n      dup3\n        /* \"#utility.yul\":1703:1706   */\n      dup2\n        /* \"#utility.yul\":1698:1701   */\n      dup4\n        /* \"#utility.yul\":1685:1715   */\n      calldatacopy\n        /* \"#utility.yul\":1749:1750   */\n      0x00\n        /* \"#utility.yul\":1740:1746   */\n      dup4\n        /* \"#utility.yul\":1735:1738   */\n      dup4\n        /* \"#utility.yul\":1731:1747   */\n      add\n        /* \"#utility.yul\":1724:1751   */\n      mstore\n        /* \"#utility.yul\":1610:1758   */\n      pop\n      pop\n      pop\n      jump\t// out\n        /* \"#utility.yul\":1764:2189   */\n    tag_48:\n        /* \"#utility.yul\":1842:1847   */\n      0x00\n        /* \"#utility.yul\":1867:1933   */\n      tag_104\n        /* \"#utility.yul\":1883:1932   */\n      tag_105\n        /* \"#utility.yul\":1925:1931   */\n      dup5\n        /* \"#utility.yul\":1883:1932   */\n      tag_46\n      jump\t// in\n    tag_105:\n        /* \"#utility.yul\":1867:1933   */\n      tag_45\n      jump\t// in\n    tag_104:\n        /* \"#utility.yul\":1858:1933   */\n      swap1\n      pop\n        /* \"#utility.yul\":1956:1962   */\n      dup3\n        /* \"#utility.yul\":1949:1954   */\n      dup2\n        /* \"#utility.yul\":1942:1963   */\n      mstore\n        /* \"#utility.yul\":1994:1998   */\n      0x20\n        /* \"#utility.yul\":1987:1992   */\n      dup2\n        /* \"#utility.yul\":1983:1999   */\n      add\n        /* \"#utility.yul\":2032:2035   */\n      dup5\n        /* \"#utility.yul\":2023:2029   */\n      dup5\n        /* \"#utility.yul\":2018:2021   */\n      dup5\n        /* \"#utility.yul\":2014:2030   */\n      add\n        /* \"#utility.yul\":2011:2036   */\n      gt\n        /* \"#utility.yul\":2008:2120   */\n      iszero\n      tag_106\n      jumpi\n        /* \"#utility.yul\":2039:2118   */\n      tag_107\n      tag_41\n      jump\t// in\n    tag_107:\n        /* \"#utility.yul\":2008:2120   */\n    tag_106:\n        /* \"#utility.yul\":2129:2183   */\n      tag_108\n        /* \"#utility.yul\":2176:2182   */\n      dup5\n        /* \"#utility.yul\":2171:2174   */\n      dup3\n        /* \"#utility.yul\":2166:2169   */\n      dup6\n        /* \"#utility.yul\":2129:2183   */\n      tag_47\n      jump\t// in\n    tag_108:\n        /* \"#utility.yul\":1848:2189   */\n      pop\n        /* \"#utility.yul\":1764:2189   */\n      swap4\n      swap3\n      pop\n      pop\n      pop\n      jump\t// out\n        /* \"#utility.yul\":2209:2549   */\n    tag_49:\n        /* \"#utility.yul\":2265:2270   */\n      0x00\n        /* \"#utility.yul\":2314:2317   */\n      dup3\n        /* \"#utility.yul\":2307:2311   */\n      0x1f\n        /* \"#utility.yul\":2299:2305   */\n      dup4\n        /* \"#utility.yul\":2295:2312   */\n      add\n        /* \"#utility.yul\":2291:2318   */\n      slt\n        /* \"#utility.yul\":2281:2403   */\n      tag_110\n      jumpi\n        /* \"#utility.yul\":2322:2401   */\n      tag_111\n      tag_40\n      jump\t// in\n    tag_111:\n        /* \"#utility.yul\":2281:2403   */\n    tag_110:\n        /* \"#utility.yul\":2439:2445   */\n      dup2\n        /* \"#utility.yul\":2426:2446   */\n      calldataload\n        /* \"#utility.yul\":2464:2543   */\n      tag_112\n        /* \"#utility.yul\":2539:2542   */\n      dup5\n        /* \"#utility.yul\":2531:2537   */\n      dup3\n        /* \"#utility.yul\":2524:2528   */\n      0x20\n        /* \"#utility.yul\":2516:2522   */\n      dup7\n        /* \"#utility.yul\":2512:2529   */\n      add\n        /* \"#utility.yul\":2464:2543   */\n      tag_48\n      jump\t// in\n    tag_112:\n        /* \"#utility.yul\":2455:2543   */\n      swap2\n      pop\n        /* \"#utility.yul\":2271:2549   */\n      pop\n        /* \"#utility.yul\":2209:2549   */\n      swap3\n      swap2\n      pop\n      pop\n      jump\t// out\n        /* \"#utility.yul\":2555:2632   */\n    tag_50:\n        /* \"#utility.yul\":2592:2599   */\n      0x00\n        /* \"#utility.yul\":2621:2626   */\n      dup2\n        /* \"#utility.yul\":2610:2626   */\n      swap1\n      pop\n        /* \"#utility.yul\":2555:2632   */\n      swap2\n      swap1\n      pop\n      jump\t// out\n        /* \"#utility.yul\":2638:2760   */\n    tag_51:\n        /* \"#utility.yul\":2711:2735   */\n      tag_115\n        /* \"#utility.yul\":2729:2734   */\n      dup2\n        /* \"#utility.yul\":2711:2735   */\n      tag_50\n      jump\t// in\n    tag_115:\n        /* \"#utility.yul\":2704:2709   */\n      dup2\n        /* \"#utility.yul\":2701:2736   */\n      eq\n        /* \"#utility.yul\":2691:2754   */\n      tag_116\n      jumpi\n        /* \"#utility.yul\":2750:2751   */\n      0x00\n        /* \"#utility.yul\":2747:2748   */\n      dup1\n        /* \"#utility.yul\":2740:2752   */\n      revert\n        /* \"#utility.yul\":2691:2754   */\n    tag_116:\n        /* \"#utility.yul\":2638:2760   */\n      pop\n      jump\t// out\n        /* \"#utility.yul\":2766:2905   */\n    tag_52:\n        /* \"#utility.yul\":2812:2817   */\n      0x00\n        /* \"#utility.yul\":2850:2856   */\n      dup2\n        /* \"#utility.yul\":2837:2857   */\n      calldataload\n        /* \"#utility.yul\":2828:2857   */\n      swap1\n      pop\n        /* \"#utility.yul\":2866:2899   */\n      tag_118\n        /* \"#utility.yul\":2893:2898   */\n      dup2\n        /* \"#utility.yul\":2866:2899   */\n      tag_51\n      jump\t// in\n    tag_118:\n        /* \"#utility.yul\":2766:2905   */\n      swap3\n      swap2\n      pop\n      pop\n      jump\t// out\n        /* \"#utility.yul\":2911:3856   */\n    tag_8:\n        /* \"#utility.yul\":3007:3013   */\n      0x00\n        /* \"#utility.yul\":3015:3021   */\n      dup1\n        /* \"#utility.yul\":3023:3029   */\n      0x00\n        /* \"#utility.yul\":3031:3037   */\n      dup1\n        /* \"#utility.yul\":3080:3083   */\n      0x80\n        /* \"#utility.yul\":3068:3077   */\n      dup6\n        /* \"#utility.yul\":3059:3066   */\n      dup8\n        /* \"#utility.yul\":3055:3078   */\n      sub\n        /* \"#utility.yul\":3051:3084   */\n      slt\n        /* \"#utility.yul\":3048:3168   */\n      iszero\n      tag_120\n      jumpi\n        /* \"#utility.yul\":3087:3166   */\n      tag_121\n      tag_38\n      jump\t// in\n    tag_121:\n        /* \"#utility.yul\":3048:3168   */\n    tag_120:\n        /* \"#utility.yul\":3235:3236   */\n      0x00\n        /* \"#utility.yul\":3224:3233   */\n      dup6\n        /* \"#utility.yul\":3220:3237   */\n      add\n        /* \"#utility.yul\":3207:3238   */\n      calldataload\n        /* \"#utility.yul\":3265:3283   */\n      0xffffffffffffffff\n        /* \"#utility.yul\":3257:3263   */\n      dup2\n        /* \"#utility.yul\":3254:3284   */\n      gt\n        /* \"#utility.yul\":3251:3368   */\n      iszero\n      tag_122\n      jumpi\n        /* \"#utility.yul\":3287:3366   */\n      tag_123\n      tag_39\n      jump\t// in\n    tag_123:\n        /* \"#utility.yul\":3251:3368   */\n    tag_122:\n        /* \"#utility.yul\":3392:3455   */\n      tag_124\n        /* \"#utility.yul\":3447:3454   */\n      dup8\n        /* \"#utility.yul\":3438:3444   */\n      dup3\n        /* \"#utility.yul\":3427:3436   */\n      dup9\n        /* \"#utility.yul\":3423:3445   */\n      add\n        /* \"#utility.yul\":3392:3455   */\n      tag_49\n      jump\t// in\n    tag_124:\n        /* \"#utility.yul\":3382:3455   */\n      swap5\n      pop\n        /* \"#utility.yul\":3178:3465   */\n      pop\n        /* \"#utility.yul\":3504:3506   */\n      0x20\n        /* \"#utility.yul\":3530:3583   */\n      tag_125\n        /* \"#utility.yul\":3575:3582   */\n      dup8\n        /* \"#utility.yul\":3566:3572   */\n      dup3\n        /* \"#utility.yul\":3555:3564   */\n      dup9\n        /* \"#utility.yul\":3551:3573   */\n      add\n        /* \"#utility.yul\":3530:3583   */\n      tag_52\n      jump\t// in\n    tag_125:\n        /* \"#utility.yul\":3520:3583   */\n      swap4\n      pop\n        /* \"#utility.yul\":3475:3593   */\n      pop\n        /* \"#utility.yul\":3632:3634   */\n      0x40\n        /* \"#utility.yul\":3658:3711   */\n      tag_126\n        /* \"#utility.yul\":3703:3710   */\n      dup8\n        /* \"#utility.yul\":3694:3700   */\n      dup3\n        /* \"#utility.yul\":3683:3692   */\n      dup9\n        /* \"#utility.yul\":3679:3701   */\n      add\n        /* \"#utility.yul\":3658:3711   */\n      tag_52\n      jump\t// in\n    tag_126:\n        /* \"#utility.yul\":3648:3711   */\n      swap3\n      pop\n        /* \"#utility.yul\":3603:3721   */\n      pop\n        /* \"#utility.yul\":3760:3762   */\n      0x60\n        /* \"#utility.yul\":3786:3839   */\n      tag_127\n        /* \"#utility.yul\":3831:3838   */\n      dup8\n        /* \"#utility.yul\":3822:3828   */\n      dup3\n        /* \"#utility.yul\":3811:3820   */\n      dup9\n        /* \"#utility.yul\":3807:3829   */\n      add\n        /* \"#utility.yul\":3786:3839   */\n      tag_52\n      jump\t// in\n    tag_127:\n        /* \"#utility.yul\":3776:3839   */\n      swap2\n      pop\n        /* \"#utility.yul\":3731:3849   */\n      pop\n        /* \"#utility.yul\":2911:3856   */\n      swap3\n      swap6\n      swap2\n      swap5\n      pop\n      swap3\n      pop\n      jump\t// out\n        /* \"#utility.yul\":3862:4191   */\n    tag_12:\n        /* \"#utility.yul\":3921:3927   */\n      0x00\n        /* \"#utility.yul\":3970:3972   */\n      0x20\n        /* \"#utility.yul\":3958:3967   */\n      dup3\n        /* \"#utility.yul\":3949:3956   */\n      dup5\n        /* \"#utility.yul\":3945:3968   */\n      sub\n        /* \"#utility.yul\":3941:3973   */\n      slt\n        /* \"#utility.yul\":3938:4057   */\n      iszero\n      tag_129\n      jumpi\n        /* \"#utility.yul\":3976:4055   */\n      tag_130\n      tag_38\n      jump\t// in\n    tag_130:\n        /* \"#utility.yul\":3938:4057   */\n    tag_129:\n        /* \"#utility.yul\":4096:4097   */\n      0x00\n        /* \"#utility.yul\":4121:4174   */\n      tag_131\n        /* \"#utility.yul\":4166:4173   */\n      dup5\n        /* \"#utility.yul\":4157:4163   */\n      dup3\n        /* \"#utility.yul\":4146:4155   */\n      dup6\n        /* \"#utility.yul\":4142:4164   */\n      add\n        /* \"#utility.yul\":4121:4174   */\n      tag_52\n      jump\t// in\n    tag_131:\n        /* \"#utility.yul\":4111:4174   */\n      swap2\n      pop\n        /* \"#utility.yul\":4067:4184   */\n      pop\n        /* \"#utility.yul\":3862:4191   */\n      swap3\n      swap2\n      pop\n      pop\n      jump\t// out\n        /* \"#utility.yul\":4197:4323   */\n    tag_53:\n        /* \"#utility.yul\":4234:4241   */\n      0x00\n        /* \"#utility.yul\":4274:4316   */\n      0xffffffffffffffffffffffffffffffffffffffff\n        /* \"#utility.yul\":4267:4272   */\n      dup3\n        /* \"#utility.yul\":4263:4317   */\n      and\n        /* \"#utility.yul\":4252:4317   */\n      swap1\n      pop\n        /* \"#utility.yul\":4197:4323   */\n      swap2\n      swap1\n      pop\n      jump\t// out\n        /* \"#utility.yul\":4329:4425   */\n    tag_54:\n        /* \"#utility.yul\":4366:4373   */\n      0x00\n        /* \"#utility.yul\":4395:4419   */\n      tag_134\n        /* \"#utility.yul\":4413:4418   */\n      dup3\n        /* \"#utility.yul\":4395:4419   */\n      tag_53\n      jump\t// in\n    tag_134:\n        /* \"#utility.yul\":4384:4419   */\n      swap1\n      pop\n        /* \"#utility.yul\":4329:4425   */\n      swap2\n      swap1\n      pop\n      jump\t// out\n        /* \"#utility.yul\":4431:4549   */\n    tag_55:\n        /* \"#utility.yul\":4518:4542   */\n      tag_136\n        /* \"#utility.yul\":4536:4541   */\n      dup2\n        /* \"#utility.yul\":4518:4542   */\n      tag_54\n      jump\t// in\n    tag_136:\n        /* \"#utility.yul\":4513:4516   */\n      dup3\n        /* \"#utility.yul\":4506:4543   */\n      mstore\n        /* \"#utility.yul\":4431:4549   */\n      pop\n      pop\n      jump\t// out\n        /* \"#utility.yul\":4555:4654   */\n    tag_56:\n        /* \"#utility.yul\":4607:4613   */\n      0x00\n        /* \"#utility.yul\":4641:4646   */\n      dup2\n        /* \"#utility.yul\":4635:4647   */\n      mload\n        /* \"#utility.yul\":4625:4647   */\n      swap1\n      pop\n        /* \"#utility.yul\":4555:4654   */\n      swap2\n      swap1\n      pop\n      jump\t// out\n        /* \"#utility.yul\":4660:4829   */\n    tag_57:\n        /* \"#utility.yul\":4744:4755   */\n      0x00\n        /* \"#utility.yul\":4778:4784   */\n      dup3\n        /* \"#utility.yul\":4773:4776   */\n      dup3\n        /* \"#utility.yul\":4766:4785   */\n      mstore\n        /* \"#utility.yul\":4818:4822   */\n      0x20\n        /* \"#utility.yul\":4813:4816   */\n      dup3\n        /* \"#utility.yul\":4809:4823   */\n      add\n        /* \"#utility.yul\":4794:4823   */\n      swap1\n      pop\n        /* \"#utility.yul\":4660:4829   */\n      swap3\n      swap2\n      pop\n      pop\n      jump\t// out\n        /* \"#utility.yul\":4835:4974   */\n    tag_58:\n        /* \"#utility.yul\":4924:4930   */\n      dup3\n        /* \"#utility.yul\":4919:4922   */\n      dup2\n        /* \"#utility.yul\":4914:4917   */\n      dup4\n        /* \"#utility.yul\":4908:4931   */\n      mcopy\n        /* \"#utility.yul\":4965:4966   */\n      0x00\n        /* \"#utility.yul\":4956:4962   */\n      dup4\n        /* \"#utility.yul\":4951:4954   */\n      dup4\n        /* \"#utility.yul\":4947:4963   */\n      add\n        /* \"#utility.yul\":4940:4967   */\n      mstore\n        /* \"#utility.yul\":4835:4974   */\n      pop\n      pop\n      pop\n      jump\t// out\n        /* \"#utility.yul\":4980:5357   */\n    tag_59:\n        /* \"#utility.yul\":5068:5071   */\n      0x00\n        /* \"#utility.yul\":5096:5135   */\n      tag_141\n        /* \"#utility.yul\":5129:5134   */\n      dup3\n        /* \"#utility.yul\":5096:5135   */\n      tag_56\n      jump\t// in\n    tag_141:\n        /* \"#utility.yul\":5151:5222   */\n      tag_142\n        /* \"#utility.yul\":5215:5221   */\n      dup2\n        /* \"#utility.yul\":5210:5213   */\n      dup6\n        /* \"#utility.yul\":5151:5222   */\n      tag_57\n      jump\t// in\n    tag_142:\n        /* \"#utility.yul\":5144:5222   */\n      swap4\n      pop\n        /* \"#utility.yul\":5231:5296   */\n      tag_143\n        /* \"#utility.yul\":5289:5295   */\n      dup2\n        /* \"#utility.yul\":5284:5287   */\n      dup6\n        /* \"#utility.yul\":5277:5281   */\n      0x20\n        /* \"#utility.yul\":5270:5275   */\n      dup7\n        /* \"#utility.yul\":5266:5282   */\n      add\n        /* \"#utility.yul\":5231:5296   */\n      tag_58\n      jump\t// in\n    tag_143:\n        /* \"#utility.yul\":5321:5350   */\n      tag_144\n        /* \"#utility.yul\":5343:5349   */\n      dup2\n        /* \"#utility.yul\":5321:5350   */\n      tag_42\n      jump\t// in\n    tag_144:\n        /* \"#utility.yul\":5316:5319   */\n      dup5\n        /* \"#utility.yul\":5312:5351   */\n      add\n        /* \"#utility.yul\":5305:5351   */\n      swap2\n      pop\n        /* \"#utility.yul\":5072:5357   */\n      pop\n        /* \"#utility.yul\":4980:5357   */\n      swap3\n      swap2\n      pop\n      pop\n      jump\t// out\n        /* \"#utility.yul\":5363:5481   */\n    tag_60:\n        /* \"#utility.yul\":5450:5474   */\n      tag_146\n        /* \"#utility.yul\":5468:5473   */\n      dup2\n        /* \"#utility.yul\":5450:5474   */\n      tag_50\n      jump\t// in\n    tag_146:\n        /* \"#utility.yul\":5445:5448   */\n      dup3\n        /* \"#utility.yul\":5438:5475   */\n      mstore\n        /* \"#utility.yul\":5363:5481   */\n      pop\n      pop\n      jump\t// out\n        /* \"#utility.yul\":5487:6353   */\n    tag_15:\n        /* \"#utility.yul\":5740:5744   */\n      0x00\n        /* \"#utility.yul\":5778:5781   */\n      0xc0\n        /* \"#utility.yul\":5767:5776   */\n      dup3\n        /* \"#utility.yul\":5763:5782   */\n      add\n        /* \"#utility.yul\":5755:5782   */\n      swap1\n      pop\n        /* \"#utility.yul\":5792:5863   */\n      tag_148\n        /* \"#utility.yul\":5860:5861   */\n      0x00\n        /* \"#utility.yul\":5849:5858   */\n      dup4\n        /* \"#utility.yul\":5845:5862   */\n      add\n        /* \"#utility.yul\":5836:5842   */\n      dup10\n        /* \"#utility.yul\":5792:5863   */\n      tag_55\n      jump\t// in\n    tag_148:\n        /* \"#utility.yul\":5910:5919   */\n      dup2\n        /* \"#utility.yul\":5904:5908   */\n      dup2\n        /* \"#utility.yul\":5900:5920   */\n      sub\n        /* \"#utility.yul\":5895:5897   */\n      0x20\n        /* \"#utility.yul\":5884:5893   */\n      dup4\n        /* \"#utility.yul\":5880:5898   */\n      add\n        /* \"#utility.yul\":5873:5921   */\n      mstore\n        /* \"#utility.yul\":5938:6016   */\n      tag_149\n        /* \"#utility.yul\":6011:6015   */\n      dup2\n        /* \"#utility.yul\":6002:6008   */\n      dup9\n        /* \"#utility.yul\":5938:6016   */\n      tag_59\n      jump\t// in\n    tag_149:\n        /* \"#utility.yul\":5930:6016   */\n      swap1\n      pop\n        /* \"#utility.yul\":6026:6098   */\n      tag_150\n        /* \"#utility.yul\":6094:6096   */\n      0x40\n        /* \"#utility.yul\":6083:6092   */\n      dup4\n        /* \"#utility.yul\":6079:6097   */\n      add\n        /* \"#utility.yul\":6070:6076   */\n      dup8\n        /* \"#utility.yul\":6026:6098   */\n      tag_60\n      jump\t// in\n    tag_150:\n        /* \"#utility.yul\":6108:6180   */\n      tag_151\n        /* \"#utility.yul\":6176:6178   */\n      0x60\n        /* \"#utility.yul\":6165:6174   */\n      dup4\n        /* \"#utility.yul\":6161:6179   */\n      add\n        /* \"#utility.yul\":6152:6158   */\n      dup7\n        /* \"#utility.yul\":6108:6180   */\n      tag_60\n      jump\t// in\n    tag_151:\n        /* \"#utility.yul\":6190:6263   */\n      tag_152\n        /* \"#utility.yul\":6258:6261   */\n      0x80\n        /* \"#utility.yul\":6247:6256   */\n      dup4\n        /* \"#utility.yul\":6243:6262   */\n      add\n        /* \"#utility.yul\":6234:6240   */\n      dup6\n        /* \"#utility.yul\":6190:6263   */\n      tag_60\n      jump\t// in\n    tag_152:\n        /* \"#utility.yul\":6273:6346   */\n      tag_153\n        /* \"#utility.yul\":6341:6344   */\n      0xa0\n        /* \"#utility.yul\":6330:6339   */\n      dup4\n        /* \"#utility.yul\":6326:6345   */\n      add\n        /* \"#utility.yul\":6317:6323   */\n      dup5\n        /* \"#utility.yul\":6273:6346   */\n      tag_60\n      jump\t// in\n    tag_153:\n        /* \"#utility.yul\":5487:6353   */\n      swap8\n      swap7\n      pop\n      pop\n      pop\n      pop\n      pop\n      pop\n      pop\n      jump\t// out\n        /* \"#utility.yul\":6359:6481   */\n    tag_61:\n        /* \"#utility.yul\":6432:6456   */\n      tag_155\n        /* \"#utility.yul\":6450:6455   */\n      dup2\n        /* \"#utility.yul\":6432:6456   */\n      tag_54\n      jump\t// in\n    tag_155:\n        /* \"#utility.yul\":6425:6430   */\n      dup2\n        /* \"#utility.yul\":6422:6457   */\n      eq\n        /* \"#utility.yul\":6412:6475   */\n      tag_156\n      jumpi\n        /* \"#utility.yul\":6471:6472   */\n      0x00\n        /* \"#utility.yul\":6468:6469   */\n      dup1\n        /* \"#utility.yul\":6461:6473   */\n      revert\n        /* \"#utility.yul\":6412:6475   */\n    tag_156:\n        /* \"#utility.yul\":6359:6481   */\n      pop\n      jump\t// out\n        /* \"#utility.yul\":6487:6626   */\n    tag_62:\n        /* \"#utility.yul\":6533:6538   */\n      0x00\n        /* \"#utility.yul\":6571:6577   */\n      dup2\n        /* \"#utility.yul\":6558:6578   */\n      calldataload\n        /* \"#utility.yul\":6549:6578   */\n      swap1\n      pop\n        /* \"#utility.yul\":6587:6620   */\n      tag_158\n        /* \"#utility.yul\":6614:6619   */\n      dup2\n        /* \"#utility.yul\":6587:6620   */\n      tag_61\n      jump\t// in\n    tag_158:\n        /* \"#utility.yul\":6487:6626   */\n      swap3\n      swap2\n      pop\n      pop\n      jump\t// out\n        /* \"#utility.yul\":6632:7106   */\n    tag_18:\n        /* \"#utility.yul\":6700:6706   */\n      0x00\n        /* \"#utility.yul\":6708:6714   */\n      dup1\n        /* \"#utility.yul\":6757:6759   */\n      0x40\n        /* \"#utility.yul\":6745:6754   */\n      dup4\n        /* \"#utility.yul\":6736:6743   */\n      dup6\n        /* \"#utility.yul\":6732:6755   */\n      sub\n        /* \"#utility.yul\":6728:6760   */\n      slt\n        /* \"#utility.yul\":6725:6844   */\n      iszero\n      tag_160\n      jumpi\n        /* \"#utility.yul\":6763:6842   */\n      tag_161\n      tag_38\n      jump\t// in\n    tag_161:\n        /* \"#utility.yul\":6725:6844   */\n    tag_160:\n        /* \"#utility.yul\":6883:6884   */\n      0x00\n        /* \"#utility.yul\":6908:6961   */\n      tag_162\n        /* \"#utility.yul\":6953:6960   */\n      dup6\n        /* \"#utility.yul\":6944:6950   */\n      dup3\n        /* \"#utility.yul\":6933:6942   */\n      dup7\n        /* \"#utility.yul\":6929:6951   */\n      add\n        /* \"#utility.yul\":6908:6961   */\n      tag_62\n      jump\t// in\n    tag_162:\n        /* \"#utility.yul\":6898:6961   */\n      swap3\n      pop\n        /* \"#utility.yul\":6854:6971   */\n      pop\n        /* \"#utility.yul\":7010:7012   */\n      0x20\n        /* \"#utility.yul\":7036:7089   */\n      tag_163\n        /* \"#utility.yul\":7081:7088   */\n      dup6\n        /* \"#utility.yul\":7072:7078   */\n      dup3\n        /* \"#utility.yul\":7061:7070   */\n      dup7\n        /* \"#utility.yul\":7057:7079   */\n      add\n        /* \"#utility.yul\":7036:7089   */\n      tag_52\n      jump\t// in\n    tag_163:\n        /* \"#utility.yul\":7026:7089   */\n      swap2\n      pop\n        /* \"#utility.yul\":6981:7099   */\n      pop\n        /* \"#utility.yul\":6632:7106   */\n      swap3\n      pop\n      swap3\n      swap1\n      pop\n      jump\t// out\n        /* \"#utility.yul\":7112:7334   */\n    tag_21:\n        /* \"#utility.yul\":7205:7209   */\n      0x00\n        /* \"#utility.yul\":7243:7245   */\n      0x20\n        /* \"#utility.yul\":7232:7241   */\n      dup3\n        /* \"#utility.yul\":7228:7246   */\n      add\n        /* \"#utility.yul\":7220:7246   */\n      swap1\n      pop\n        /* \"#utility.yul\":7256:7327   */\n      tag_165\n        /* \"#utility.yul\":7324:7325   */\n      0x00\n        /* \"#utility.yul\":7313:7322   */\n      dup4\n        /* \"#utility.yul\":7309:7326   */\n      add\n        /* \"#utility.yul\":7300:7306   */\n      dup5\n        /* \"#utility.yul\":7256:7327   */\n      tag_60\n      jump\t// in\n    tag_165:\n        /* \"#utility.yul\":7112:7334   */\n      swap3\n      swap2\n      pop\n      pop\n      jump\t// out\n        /* \"#utility.yul\":7340:7565   */\n    tag_63:\n        /* \"#utility.yul\":7480:7514   */\n      0x596f752063616e206f72676e697a65204576656e7420666f7220667574757265\n        /* \"#utility.yul\":7476:7477   */\n      0x00\n        /* \"#utility.yul\":7468:7474   */\n      dup3\n        /* \"#utility.yul\":7464:7478   */\n      add\n        /* \"#utility.yul\":7457:7515   */\n      mstore\n        /* \"#utility.yul\":7549:7557   */\n      0x2044617465730000000000000000000000000000000000000000000000000000\n        /* \"#utility.yul\":7544:7546   */\n      0x20\n        /* \"#utility.yul\":7536:7542   */\n      dup3\n        /* \"#utility.yul\":7532:7547   */\n      add\n        /* \"#utility.yul\":7525:7558   */\n      mstore\n        /* \"#utility.yul\":7340:7565   */\n      pop\n      jump\t// out\n        /* \"#utility.yul\":7571:7937   */\n    tag_64:\n        /* \"#utility.yul\":7713:7716   */\n      0x00\n        /* \"#utility.yul\":7734:7801   */\n      tag_168\n        /* \"#utility.yul\":7798:7800   */\n      0x26\n        /* \"#utility.yul\":7793:7796   */\n      dup4\n        /* \"#utility.yul\":7734:7801   */\n      tag_57\n      jump\t// in\n    tag_168:\n        /* \"#utility.yul\":7727:7801   */\n      swap2\n      pop\n        /* \"#utility.yul\":7810:7903   */\n      tag_169\n        /* \"#utility.yul\":7899:7902   */\n      dup3\n        /* \"#utility.yul\":7810:7903   */\n      tag_63\n      jump\t// in\n    tag_169:\n        /* \"#utility.yul\":7928:7930   */\n      0x40\n        /* \"#utility.yul\":7923:7926   */\n      dup3\n        /* \"#utility.yul\":7919:7931   */\n      add\n        /* \"#utility.yul\":7912:7931   */\n      swap1\n      pop\n        /* \"#utility.yul\":7571:7937   */\n      swap2\n      swap1\n      pop\n      jump\t// out\n        /* \"#utility.yul\":7943:8362   */\n    tag_25:\n        /* \"#utility.yul\":8109:8113   */\n      0x00\n        /* \"#utility.yul\":8147:8149   */\n      0x20\n        /* \"#utility.yul\":8136:8145   */\n      dup3\n        /* \"#utility.yul\":8132:8150   */\n      add\n        /* \"#utility.yul\":8124:8150   */\n      swap1\n      pop\n        /* \"#utility.yul\":8196:8205   */\n      dup2\n        /* \"#utility.yul\":8190:8194   */\n      dup2\n        /* \"#utility.yul\":8186:8206   */\n      sub\n        /* \"#utility.yul\":8182:8183   */\n      0x00\n        /* \"#utility.yul\":8171:8180   */\n      dup4\n        /* \"#utility.yul\":8167:8184   */\n      add\n        /* \"#utility.yul\":8160:8207   */\n      mstore\n        /* \"#utility.yul\":8224:8355   */\n      tag_171\n        /* \"#utility.yul\":8350:8354   */\n      dup2\n        /* \"#utility.yul\":8224:8355   */\n      tag_64\n      jump\t// in\n    tag_171:\n        /* \"#utility.yul\":8216:8355   */\n      swap1\n      pop\n        /* \"#utility.yul\":7943:8362   */\n      swap2\n      swap1\n      pop\n      jump\t// out\n        /* \"#utility.yul\":8368:8612   */\n    tag_65:\n        /* \"#utility.yul\":8508:8542   */\n      0x546f74616c207469636b65747320666f7220616e204576656e742073686f756c\n        /* \"#utility.yul\":8504:8505   */\n      0x00\n        /* \"#utility.yul\":8496:8502   */\n      dup3\n        /* \"#utility.yul\":8492:8506   */\n      add\n        /* \"#utility.yul\":8485:8543   */\n      mstore\n        /* \"#utility.yul\":8577:8604   */\n      0x64206265206d6f7265207468616e20657175616c20746f203100000000000000\n        /* \"#utility.yul\":8572:8574   */\n      0x20\n        /* \"#utility.yul\":8564:8570   */\n      dup3\n        /* \"#utility.yul\":8560:8575   */\n      add\n        /* \"#utility.yul\":8553:8605   */\n      mstore\n        /* \"#utility.yul\":8368:8612   */\n      pop\n      jump\t// out\n        /* \"#utility.yul\":8618:8984   */\n    tag_66:\n        /* \"#utility.yul\":8760:8763   */\n      0x00\n        /* \"#utility.yul\":8781:8848   */\n      tag_174\n        /* \"#utility.yul\":8845:8847   */\n      0x39\n        /* \"#utility.yul\":8840:8843   */\n      dup4\n        /* \"#utility.yul\":8781:8848   */\n      tag_57\n      jump\t// in\n    tag_174:\n        /* \"#utility.yul\":8774:8848   */\n      swap2\n      pop\n        /* \"#utility.yul\":8857:8950   */\n      tag_175\n        /* \"#utility.yul\":8946:8949   */\n      dup3\n        /* \"#utility.yul\":8857:8950   */\n      tag_65\n      jump\t// in\n    tag_175:\n        /* \"#utility.yul\":8975:8977   */\n      0x40\n        /* \"#utility.yul\":8970:8973   */\n      dup3\n        /* \"#utility.yul\":8966:8978   */\n      add\n        /* \"#utility.yul\":8959:8978   */\n      swap1\n      pop\n        /* \"#utility.yul\":8618:8984   */\n      swap2\n      swap1\n      pop\n      jump\t// out\n        /* \"#utility.yul\":8990:9409   */\n    tag_28:\n        /* \"#utility.yul\":9156:9160   */\n      0x00\n        /* \"#utility.yul\":9194:9196   */\n      0x20\n        /* \"#utility.yul\":9183:9192   */\n      dup3\n        /* \"#utility.yul\":9179:9197   */\n      add\n        /* \"#utility.yul\":9171:9197   */\n      swap1\n      pop\n        /* \"#utility.yul\":9243:9252   */\n      dup2\n        /* \"#utility.yul\":9237:9241   */\n      dup2\n        /* \"#utility.yul\":9233:9253   */\n      sub\n        /* \"#utility.yul\":9229:9230   */\n      0x00\n        /* \"#utility.yul\":9218:9227   */\n      dup4\n        /* \"#utility.yul\":9214:9231   */\n      add\n        /* \"#utility.yul\":9207:9254   */\n      mstore\n        /* \"#utility.yul\":9271:9402   */\n      tag_177\n        /* \"#utility.yul\":9397:9401   */\n      dup2\n        /* \"#utility.yul\":9271:9402   */\n      tag_66\n      jump\t// in\n    tag_177:\n        /* \"#utility.yul\":9263:9402   */\n      swap1\n      pop\n        /* \"#utility.yul\":8990:9409   */\n      swap2\n      swap1\n      pop\n      jump\t// out\n        /* \"#utility.yul\":9415:9595   */\n    tag_67:\n        /* \"#utility.yul\":9463:9540   */\n      0x4e487b7100000000000000000000000000000000000000000000000000000000\n        /* \"#utility.yul\":9460:9461   */\n      0x00\n        /* \"#utility.yul\":9453:9541   */\n      mstore\n        /* \"#utility.yul\":9560:9564   */\n      0x22\n        /* \"#utility.yul\":9557:9558   */\n      0x04\n        /* \"#utility.yul\":9550:9565   */\n      mstore\n        /* \"#utility.yul\":9584:9588   */\n      0x24\n        /* \"#utility.yul\":9581:9582   */\n      0x00\n        /* \"#utility.yul\":9574:9589   */\n      revert\n        /* \"#utility.yul\":9601:9921   */\n    tag_32:\n        /* \"#utility.yul\":9645:9651   */\n      0x00\n        /* \"#utility.yul\":9682:9683   */\n      0x02\n        /* \"#utility.yul\":9676:9680   */\n      dup3\n        /* \"#utility.yul\":9672:9684   */\n      div\n        /* \"#utility.yul\":9662:9684   */\n      swap1\n      pop\n        /* \"#utility.yul\":9729:9730   */\n      0x01\n        /* \"#utility.yul\":9723:9727   */\n      dup3\n        /* \"#utility.yul\":9719:9731   */\n      and\n        /* \"#utility.yul\":9750:9768   */\n      dup1\n        /* \"#utility.yul\":9740:9821   */\n      tag_180\n      jumpi\n        /* \"#utility.yul\":9806:9810   */\n      0x7f\n        /* \"#utility.yul\":9798:9804   */\n      dup3\n        /* \"#utility.yul\":9794:9811   */\n      and\n        /* \"#utility.yul\":9784:9811   */\n      swap2\n      pop\n        /* \"#utility.yul\":9740:9821   */\n    tag_180:\n        /* \"#utility.yul\":9868:9870   */\n      0x20\n        /* \"#utility.yul\":9860:9866   */\n      dup3\n        /* \"#utility.yul\":9857:9871   */\n      lt\n        /* \"#utility.yul\":9837:9855   */\n      dup2\n        /* \"#utility.yul\":9834:9872   */\n      sub\n        /* \"#utility.yul\":9831:9915   */\n      tag_181\n      jumpi\n        /* \"#utility.yul\":9887:9905   */\n      tag_182\n      tag_67\n      jump\t// in\n    tag_182:\n        /* \"#utility.yul\":9831:9915   */\n    tag_181:\n        /* \"#utility.yul\":9652:9921   */\n      pop\n        /* \"#utility.yul\":9601:9921   */\n      swap2\n      swap1\n      pop\n      jump\t// out\n        /* \"#utility.yul\":9927:10068   */\n    tag_68:\n        /* \"#utility.yul\":9976:9980   */\n      0x00\n        /* \"#utility.yul\":9999:10002   */\n      dup2\n        /* \"#utility.yul\":9991:10002   */\n      swap1\n      pop\n        /* \"#utility.yul\":10022:10025   */\n      dup2\n        /* \"#utility.yul\":10019:10020   */\n      0x00\n        /* \"#utility.yul\":10012:10026   */\n      mstore\n        /* \"#utility.yul\":10056:10060   */\n      0x20\n        /* \"#utility.yul\":10053:10054   */\n      0x00\n        /* \"#utility.yul\":10043:10061   */\n      keccak256\n        /* \"#utility.yul\":10035:10061   */\n      swap1\n      pop\n        /* \"#utility.yul\":9927:10068   */\n      swap2\n      swap1\n      pop\n      jump\t// out\n        /* \"#utility.yul\":10074:10167   */\n    tag_69:\n        /* \"#utility.yul\":10111:10117   */\n      0x00\n        /* \"#utility.yul\":10158:10160   */\n      0x20\n        /* \"#utility.yul\":10153:10155   */\n      0x1f\n        /* \"#utility.yul\":10146:10151   */\n      dup4\n        /* \"#utility.yul\":10142:10156   */\n      add\n        /* \"#utility.yul\":10138:10161   */\n      div\n        /* \"#utility.yul\":10128:10161   */\n      swap1\n      pop\n        /* \"#utility.yul\":10074:10167   */\n      swap2\n      swap1\n      pop\n      jump\t// out\n        /* \"#utility.yul\":10173:10280   */\n    tag_70:\n        /* \"#utility.yul\":10217:10225   */\n      0x00\n        /* \"#utility.yul\":10267:10272   */\n      dup3\n        /* \"#utility.yul\":10261:10265   */\n      dup3\n        /* \"#utility.yul\":10257:10273   */\n      shl\n        /* \"#utility.yul\":10236:10273   */\n      swap1\n      pop\n        /* \"#utility.yul\":10173:10280   */\n      swap3\n      swap2\n      pop\n      pop\n      jump\t// out\n        /* \"#utility.yul\":10286:10679   */\n    tag_71:\n        /* \"#utility.yul\":10355:10361   */\n      0x00\n        /* \"#utility.yul\":10405:10406   */\n      0x08\n        /* \"#utility.yul\":10393:10403   */\n      dup4\n        /* \"#utility.yul\":10389:10407   */\n      mul\n        /* \"#utility.yul\":10428:10525   */\n      tag_187\n        /* \"#utility.yul\":10458:10524   */\n      0xffffffffffffffffffffffffffffffffffffffffffffffffffffffffffffffff\n        /* \"#utility.yul\":10447:10456   */\n      dup3\n        /* \"#utility.yul\":10428:10525   */\n      tag_70\n      jump\t// in\n    tag_187:\n        /* \"#utility.yul\":10546:10585   */\n      tag_188\n        /* \"#utility.yul\":10576:10584   */\n      dup7\n        /* \"#utility.yul\":10565:10574   */\n      dup4\n        /* \"#utility.yul\":10546:10585   */\n      tag_70\n      jump\t// in\n    tag_188:\n        /* \"#utility.yul\":10534:10585   */\n      swap6\n      pop\n        /* \"#utility.yul\":10618:10622   */\n      dup1\n        /* \"#utility.yul\":10614:10623   */\n      not\n        /* \"#utility.yul\":10607:10612   */\n      dup5\n        /* \"#utility.yul\":10603:10624   */\n      and\n        /* \"#utility.yul\":10594:10624   */\n      swap4\n      pop\n        /* \"#utility.yul\":10667:10671   */\n      dup1\n        /* \"#utility.yul\":10657:10665   */\n      dup7\n        /* \"#utility.yul\":10653:10672   */\n      and\n        /* \"#utility.yul\":10646:10651   */\n      dup5\n        /* \"#utility.yul\":10643:10673   */\n      or\n        /* \"#utility.yul\":10633:10673   */\n      swap3\n      pop\n        /* \"#utility.yul\":10362:10679   */\n      pop\n      pop\n        /* \"#utility.yul\":10286:10679   */\n      swap4\n      swap3\n      pop\n      pop\n      pop\n      jump\t// out\n        /* \"#utility.yul\":10685:10745   */\n    tag_72:\n        /* \"#utility.yul\":10713:10716   */\n      0x00\n        /* \"#utility.yul\":10734:10739   */\n      dup2\n        /* \"#utility.yul\":10727:10739   */\n      swap1\n      pop\n        /* \"#utility.yul\":10685:10745   */\n      swap2\n      swap1\n      pop\n      jump\t// out\n        /* \"#utility.yul\":10751:10893   */\n    tag_73:\n        /* \"#utility.yul\":10801:10810   */\n      0x00\n        /* \"#utility.yul\":10834:10887   */\n      tag_191\n        /* \"#utility.yul\":10852:10886   */\n      tag_192\n        /* \"#utility.yul\":10861:10885   */\n      tag_193\n        /* \"#utility.yul\":10879:10884   */\n      dup5\n        /* \"#utility.yul\":10861:10885   */\n      tag_50\n      jump\t// in\n    tag_193:\n        /* \"#utility.yul\":10852:10886   */\n      tag_72\n      jump\t// in\n    tag_192:\n        /* \"#utility.yul\":10834:10887   */\n      tag_50\n      jump\t// in\n    tag_191:\n        /* \"#utility.yul\":10821:10887   */\n      swap1\n      pop\n        /* \"#utility.yul\":10751:10893   */\n      swap2\n      swap1\n      pop\n      jump\t// out\n        /* \"#utility.yul\":10899:10974   */\n    tag_74:\n        /* \"#utility.yul\":10942:10945   */\n      0x00\n        /* \"#utility.yul\":10963:10968   */\n      dup2\n        /* \"#utility.yul\":10956:10968   */\n      swap1\n      pop\n        /* \"#utility.yul\":10899:10974   */\n      swap2\n      swap1\n      pop\n      jump\t// out\n        /* \"#utility.yul\":10980:11249   */\n    tag_75:\n        /* \"#utility.yul\":11090:11129   */\n      tag_196\n        /* \"#utility.yul\":11121:11128   */\n      dup4\n        /* \"#utility.yul\":11090:11129   */\n      tag_73\n      jump\t// in\n    tag_196:\n        /* \"#utility.yul\":11151:11242   */\n      tag_197\n        /* \"#utility.yul\":11200:11241   */\n      tag_198\n        /* \"#utility.yul\":11224:11240   */\n      dup3\n        /* \"#utility.yul\":11200:11241   */\n      tag_74\n      jump\t// in\n    tag_198:\n        /* \"#utility.yul\":11192:11198   */\n      dup5\n        /* \"#utility.yul\":11185:11189   */\n      dup5\n        /* \"#utility.yul\":11179:11190   */\n      sload\n        /* \"#utility.yul\":11151:11242   */\n      tag_71\n      jump\t// in\n    tag_197:\n        /* \"#utility.yul\":11145:11149   */\n      dup3\n        /* \"#utility.yul\":11138:11243   */\n      sstore\n        /* \"#utility.yul\":11056:11249   */\n      pop\n        /* \"#utility.yul\":10980:11249   */\n      pop\n      pop\n      pop\n      jump\t// out\n        /* \"#utility.yul\":11255:11328   */\n    tag_76:\n        /* \"#utility.yul\":11300:11303   */\n      0x00\n        /* \"#utility.yul\":11255:11328   */\n      swap1\n      jump\t// out\n        /* \"#utility.yul\":11334:11523   */\n    tag_77:\n        /* \"#utility.yul\":11411:11443   */\n      tag_201\n      tag_76\n      jump\t// in\n    tag_201:\n        /* \"#utility.yul\":11452:11517   */\n      tag_202\n        /* \"#utility.yul\":11510:11516   */\n      dup2\n        /* \"#utility.yul\":11502:11508   */\n      dup5\n        /* \"#utility.yul\":11496:11500   */\n      dup5\n        /* \"#utility.yul\":11452:11517   */\n      tag_75\n      jump\t// in\n    tag_202:\n        /* \"#utility.yul\":11387:11523   */\n      pop\n        /* \"#utility.yul\":11334:11523   */\n      pop\n      pop\n      jump\t// out\n        /* \"#utility.yul\":11529:11715   */\n    tag_78:\n        /* \"#utility.yul\":11589:11709   */\n    tag_204:\n        /* \"#utility.yul\":11606:11609   */\n      dup2\n        /* \"#utility.yul\":11599:11604   */\n      dup2\n        /* \"#utility.yul\":11596:11610   */\n      lt\n        /* \"#utility.yul\":11589:11709   */\n      iszero\n      tag_206\n      jumpi\n        /* \"#utility.yul\":11660:11699   */\n      tag_207\n        /* \"#utility.yul\":11697:11698   */\n      0x00\n        /* \"#utility.yul\":11690:11695   */\n      dup3\n        /* \"#utility.yul\":11660:11699   */\n      tag_77\n      jump\t// in\n    tag_207:\n        /* \"#utility.yul\":11633:11634   */\n      0x01\n        /* \"#utility.yul\":11626:11631   */\n      dup2\n        /* \"#utility.yul\":11622:11635   */\n      add\n        /* \"#utility.yul\":11613:11635   */\n      swap1\n      pop\n        /* \"#utility.yul\":11589:11709   */\n      jump(tag_204)\n    tag_206:\n        /* \"#utility.yul\":11529:11715   */\n      pop\n      pop\n      jump\t// out\n        /* \"#utility.yul\":11721:12264   */\n    tag_79:\n        /* \"#utility.yul\":11822:11824   */\n      0x1f\n        /* \"#utility.yul\":11817:11820   */\n      dup3\n        /* \"#utility.yul\":11814:11825   */\n      gt\n        /* \"#utility.yul\":11811:12257   */\n      iszero\n      tag_209\n      jumpi\n        /* \"#utility.yul\":11856:11894   */\n      tag_210\n        /* \"#utility.yul\":11888:11893   */\n      dup2\n        /* \"#utility.yul\":11856:11894   */\n      tag_68\n      jump\t// in\n    tag_210:\n        /* \"#utility.yul\":11940:11969   */\n      tag_211\n        /* \"#utility.yul\":11958:11968   */\n      dup5\n        /* \"#utility.yul\":11940:11969   */\n      tag_69\n      jump\t// in\n    tag_211:\n        /* \"#utility.yul\":11930:11938   */\n      dup2\n        /* \"#utility.yul\":11926:11970   */\n      add\n        /* \"#utility.yul\":12123:12125   */\n      0x20\n        /* \"#utility.yul\":12111:12121   */\n      dup6\n        /* \"#utility.yul\":12108:12126   */\n      lt\n        /* \"#utility.yul\":12105:12154   */\n      iszero\n      tag_212\n      jumpi\n        /* \"#utility.yul\":12144:12152   */\n      dup2\n        /* \"#utility.yul\":12129:12152   */\n      swap1\n      pop\n        /* \"#utility.yul\":12105:12154   */\n    tag_212:\n        /* \"#utility.yul\":12167:12247   */\n      tag_213\n        /* \"#utility.yul\":12223:12245   */\n      tag_214\n        /* \"#utility.yul\":12241:12244   */\n      dup6\n        /* \"#utility.yul\":12223:12245   */\n      tag_69\n      jump\t// in\n    tag_214:\n        /* \"#utility.yul\":12213:12221   */\n      dup4\n        /* \"#utility.yul\":12209:12246   */\n      add\n        /* \"#utility.yul\":12196:12207   */\n      dup3\n        /* \"#utility.yul\":12167:12247   */\n      tag_78\n      jump\t// in\n    tag_213:\n        /* \"#utility.yul\":11826:12257   */\n      pop\n      pop\n        /* \"#utility.yul\":11811:12257   */\n    tag_209:\n        /* \"#utility.yul\":11721:12264   */\n      pop\n      pop\n      pop\n      jump\t// out\n        /* \"#utility.yul\":12270:12387   */\n    tag_80:\n        /* \"#utility.yul\":12324:12332   */\n      0x00\n        /* \"#utility.yul\":12374:12379   */\n      dup3\n        /* \"#utility.yul\":12368:12372   */\n      dup3\n        /* \"#utility.yul\":12364:12380   */\n      shr\n        /* \"#utility.yul\":12343:12380   */\n      swap1\n      pop\n        /* \"#utility.yul\":12270:12387   */\n      swap3\n      swap2\n      pop\n      pop\n      jump\t// out\n        /* \"#utility.yul\":12393:12562   */\n    tag_81:\n        /* \"#utility.yul\":12437:12443   */\n      0x00\n        /* \"#utility.yul\":12470:12521   */\n      tag_217\n        /* \"#utility.yul\":12518:12519   */\n      0x00\n        /* \"#utility.yul\":12514:12520   */\n      not\n        /* \"#utility.yul\":12506:12511   */\n      dup5\n        /* \"#utility.yul\":12503:12504   */\n      0x08\n        /* \"#utility.yul\":12499:12512   */\n      mul\n        /* \"#utility.yul\":12470:12521   */\n      tag_80\n      jump\t// in\n    tag_217:\n        /* \"#utility.yul\":12466:12522   */\n      not\n        /* \"#utility.yul\":12551:12555   */\n      dup1\n        /* \"#utility.yul\":12545:12549   */\n      dup4\n        /* \"#utility.yul\":12541:12556   */\n      and\n        /* \"#utility.yul\":12531:12556   */\n      swap2\n      pop\n        /* \"#utility.yul\":12444:12562   */\n      pop\n        /* \"#utility.yul\":12393:12562   */\n      swap3\n      swap2\n      pop\n      pop\n      jump\t// out\n        /* \"#utility.yul\":12567:12862   */\n    tag_82:\n        /* \"#utility.yul\":12643:12647   */\n      0x00\n        /* \"#utility.yul\":12789:12818   */\n      tag_219\n        /* \"#utility.yul\":12814:12817   */\n      dup4\n        /* \"#utility.yul\":12808:12812   */\n      dup4\n        /* \"#utility.yul\":12789:12818   */\n      tag_81\n      jump\t// in\n    tag_219:\n        /* \"#utility.yul\":12781:12818   */\n      swap2\n      pop\n        /* \"#utility.yul\":12851:12854   */\n      dup3\n        /* \"#utility.yul\":12848:12849   */\n      0x02\n        /* \"#utility.yul\":12844:12855   */\n      mul\n        /* \"#utility.yul\":12838:12842   */\n      dup3\n        /* \"#utility.yul\":12835:12856   */\n      or\n        /* \"#utility.yul\":12827:12856   */\n      swap1\n      pop\n        /* \"#utility.yul\":12567:12862   */\n      swap3\n      swap2\n      pop\n      pop\n      jump\t// out\n        /* \"#utility.yul\":12867:14262   */\n    tag_30:\n        /* \"#utility.yul\":12984:13021   */\n      tag_221\n        /* \"#utility.yul\":13017:13020   */\n      dup3\n        /* \"#utility.yul\":12984:13021   */\n      tag_56\n      jump\t// in\n    tag_221:\n        /* \"#utility.yul\":13086:13104   */\n      0xffffffffffffffff\n        /* \"#utility.yul\":13078:13084   */\n      dup2\n        /* \"#utility.yul\":13075:13105   */\n      gt\n        /* \"#utility.yul\":13072:13128   */\n      iszero\n      tag_222\n      jumpi\n        /* \"#utility.yul\":13108:13126   */\n      tag_223\n      tag_43\n      jump\t// in\n    tag_223:\n        /* \"#utility.yul\":13072:13128   */\n    tag_222:\n        /* \"#utility.yul\":13152:13190   */\n      tag_224\n        /* \"#utility.yul\":13184:13188   */\n      dup3\n        /* \"#utility.yul\":13178:13189   */\n      sload\n        /* \"#utility.yul\":13152:13190   */\n      tag_32\n      jump\t// in\n    tag_224:\n        /* \"#utility.yul\":13237:13304   */\n      tag_225\n        /* \"#utility.yul\":13297:13303   */\n      dup3\n        /* \"#utility.yul\":13289:13295   */\n      dup3\n        /* \"#utility.yul\":13283:13287   */\n      dup6\n        /* \"#utility.yul\":13237:13304   */\n      tag_79\n      jump\t// in\n    tag_225:\n        /* \"#utility.yul\":13331:13332   */\n      0x00\n        /* \"#utility.yul\":13355:13359   */\n      0x20\n        /* \"#utility.yul\":13342:13359   */\n      swap1\n      pop\n        /* \"#utility.yul\":13387:13389   */\n      0x1f\n        /* \"#utility.yul\":13379:13385   */\n      dup4\n        /* \"#utility.yul\":13376:13390   */\n      gt\n        /* \"#utility.yul\":13404:13405   */\n      0x01\n        /* \"#utility.yul\":13399:14017   */\n      dup2\n      eq\n      tag_227\n      jumpi\n        /* \"#utility.yul\":14061:14062   */\n      0x00\n        /* \"#utility.yul\":14078:14084   */\n      dup5\n        /* \"#utility.yul\":14075:14152   */\n      iszero\n      tag_228\n      jumpi\n        /* \"#utility.yul\":14127:14136   */\n      dup3\n        /* \"#utility.yul\":14122:14125   */\n      dup8\n        /* \"#utility.yul\":14118:14137   */\n      add\n        /* \"#utility.yul\":14112:14138   */\n      mload\n        /* \"#utility.yul\":14103:14138   */\n      swap1\n      pop\n        /* \"#utility.yul\":14075:14152   */\n    tag_228:\n        /* \"#utility.yul\":14178:14245   */\n      tag_229\n        /* \"#utility.yul\":14238:14244   */\n      dup6\n        /* \"#utility.yul\":14231:14236   */\n      dup3\n        /* \"#utility.yul\":14178:14245   */\n      tag_82\n      jump\t// in\n    tag_229:\n        /* \"#utility.yul\":14172:14176   */\n      dup7\n        /* \"#utility.yul\":14165:14246   */\n      sstore\n        /* \"#utility.yul\":14034:14256   */\n      pop\n        /* \"#utility.yul\":13369:14256   */\n      jump(tag_226)\n        /* \"#utility.yul\":13399:14017   */\n    tag_227:\n        /* \"#utility.yul\":13451:13455   */\n      0x1f\n        /* \"#utility.yul\":13447:13456   */\n      not\n        /* \"#utility.yul\":13439:13445   */\n      dup5\n        /* \"#utility.yul\":13435:13457   */\n      and\n        /* \"#utility.yul\":13485:13522   */\n      tag_230\n        /* \"#utility.yul\":13517:13521   */\n      dup7\n        /* \"#utility.yul\":13485:13522   */\n      tag_68\n      jump\t// in\n    tag_230:\n        /* \"#utility.yul\":13544:13545   */\n      0x00\n        /* \"#utility.yul\":13558:13766   */\n    tag_231:\n        /* \"#utility.yul\":13572:13579   */\n      dup3\n        /* \"#utility.yul\":13569:13570   */\n      dup2\n        /* \"#utility.yul\":13566:13580   */\n      lt\n        /* \"#utility.yul\":13558:13766   */\n      iszero\n      tag_233\n      jumpi\n        /* \"#utility.yul\":13651:13660   */\n      dup5\n        /* \"#utility.yul\":13646:13649   */\n      dup10\n        /* \"#utility.yul\":13642:13661   */\n      add\n        /* \"#utility.yul\":13636:13662   */\n      mload\n        /* \"#utility.yul\":13628:13634   */\n      dup3\n        /* \"#utility.yul\":13621:13663   */\n      sstore\n        /* \"#utility.yul\":13702:13703   */\n      0x01\n        /* \"#utility.yul\":13694:13700   */\n      dup3\n        /* \"#utility.yul\":13690:13704   */\n      add\n        /* \"#utility.yul\":13680:13704   */\n      swap2\n      pop\n        /* \"#utility.yul\":13749:13751   */\n      0x20\n        /* \"#utility.yul\":13738:13747   */\n      dup6\n        /* \"#utility.yul\":13734:13752   */\n      add\n        /* \"#utility.yul\":13721:13752   */\n      swap5\n      pop\n        /* \"#utility.yul\":13595:13599   */\n      0x20\n        /* \"#utility.yul\":13592:13593   */\n      dup2\n        /* \"#utility.yul\":13588:13600   */\n      add\n        /* \"#utility.yul\":13583:13600   */\n      swap1\n      pop\n        /* \"#utility.yul\":13558:13766   */\n      jump(tag_231)\n    tag_233:\n        /* \"#utility.yul\":13794:13800   */\n      dup7\n        /* \"#utility.yul\":13785:13792   */\n      dup4\n        /* \"#utility.yul\":13782:13801   */\n      lt\n        /* \"#utility.yul\":13779:13958   */\n      iszero\n      tag_234\n      jumpi\n        /* \"#utility.yul\":13852:13861   */\n      dup5\n        /* \"#utility.yul\":13847:13850   */\n      dup10\n        /* \"#utility.yul\":13843:13862   */\n      add\n        /* \"#utility.yul\":13837:13863   */\n      mload\n        /* \"#utility.yul\":13895:13943   */\n      tag_235\n        /* \"#utility.yul\":13937:13941   */\n      0x1f\n        /* \"#utility.yul\":13929:13935   */\n      dup10\n        /* \"#utility.yul\":13925:13942   */\n      and\n        /* \"#utility.yul\":13914:13923   */\n      dup3\n        /* \"#utility.yul\":13895:13943   */\n      tag_81\n      jump\t// in\n    tag_235:\n        /* \"#utility.yul\":13887:13893   */\n      dup4\n        /* \"#utility.yul\":13880:13944   */\n      sstore\n        /* \"#utility.yul\":13802:13958   */\n      pop\n        /* \"#utility.yul\":13779:13958   */\n    tag_234:\n        /* \"#utility.yul\":14004:14005   */\n      0x01\n        /* \"#utility.yul\":14000:14001   */\n      0x02\n        /* \"#utility.yul\":13992:13998   */\n      dup9\n        /* \"#utility.yul\":13988:14002   */\n      mul\n        /* \"#utility.yul\":13984:14006   */\n      add\n        /* \"#utility.yul\":13978:13982   */\n      dup9\n        /* \"#utility.yul\":13971:14007   */\n      sstore\n        /* \"#utility.yul\":13406:14017   */\n      pop\n      pop\n      pop\n        /* \"#utility.yul\":13369:14256   */\n    tag_226:\n      pop\n        /* \"#utility.yul\":12959:14262   */\n      pop\n      pop\n      pop\n        /* \"#utility.yul\":12867:14262   */\n      pop\n      pop\n      jump\t// out\n\n    auxdata: 0xa2646970667358221220875c092e8c63e267c8a62b212469f41558711a4f43d230fa2ae1829fb09255ef64736f6c63430008190033\n}\n",
				"bytecode": {
					"linkReferences": {},
					"object": "6080604052348015600e575f80fd5b50610b018061001c5f395ff3fe608060405234801561000f575f80fd5b506004361061003f575f3560e01c80630374ab0b146100435780630b7914301461005f578063dae7a13c14610094575b5f80fd5b61005d600480360381019061005891906104a6565b6100c4565b005b61007960048036038101906100749190610526565b61022a565b60405161008b969594939291906105ff565b60405180910390f35b6100ae60048036038101906100a9919061068f565b610306565b6040516100bb91906106cd565b60405180910390f35b428311610106576040517f08c379a00000000000000000000000000000000000000000000000000000000081526004016100fd90610756565b60405180910390fd5b600181101561014a576040517f08c379a0000000000000000000000000000000000000000000000000000000008152600401610141906107e4565b60405180910390fd5b6040518060c001604052803373ffffffffffffffffffffffffffffffffffffffff168152602001858152602001848152602001838152602001828152602001828152505f8060025481526020019081526020015f205f820151815f015f6101000a81548173ffffffffffffffffffffffffffffffffffffffff021916908373ffffffffffffffffffffffffffffffffffffffff16021790555060208201518160010190816101f891906109fc565b5060408201518160020155606082015181600301556080820151816004015560a0820151816005015590505050505050565b5f602052805f5260405f205f91509050805f015f9054906101000a900473ffffffffffffffffffffffffffffffffffffffff169080600101805461026d9061082f565b80601f01602080910402602001604051908101604052809291908181526020018280546102999061082f565b80156102e45780601f106102bb576101008083540402835291602001916102e4565b820191905f5260205f20905b8154815290600101906020018083116102c757829003601f168201915b5050505050908060020154908060030154908060040154908060050154905086565b6001602052815f5260405f20602052805f5260405f205f91509150505481565b5f604051905090565b5f80fd5b5f80fd5b5f80fd5b5f80fd5b5f601f19601f8301169050919050565b7f4e487b71000000000000000000000000000000000000000000000000000000005f52604160045260245ffd5b6103858261033f565b810181811067ffffffffffffffff821117156103a4576103a361034f565b5b80604052505050565b5f6103b6610326565b90506103c2828261037c565b919050565b5f67ffffffffffffffff8211156103e1576103e061034f565b5b6103ea8261033f565b9050602081019050919050565b828183375f83830152505050565b5f610417610412846103c7565b6103ad565b9050828152602081018484840111156104335761043261033b565b5b61043e8482856103f7565b509392505050565b5f82601f83011261045a57610459610337565b5b813561046a848260208601610405565b91505092915050565b5f819050919050565b61048581610473565b811461048f575f80fd5b50565b5f813590506104a08161047c565b92915050565b5f805f80608085870312156104be576104bd61032f565b5b5f85013567ffffffffffffffff8111156104db576104da610333565b5b6104e787828801610446565b94505060206104f887828801610492565b935050604061050987828801610492565b925050606061051a87828801610492565b91505092959194509250565b5f6020828403121561053b5761053a61032f565b5b5f61054884828501610492565b91505092915050565b5f73ffffffffffffffffffffffffffffffffffffffff82169050919050565b5f61057a82610551565b9050919050565b61058a81610570565b82525050565b5f81519050919050565b5f82825260208201905092915050565b8281835e5f83830152505050565b5f6105c282610590565b6105cc818561059a565b93506105dc8185602086016105aa565b6105e58161033f565b840191505092915050565b6105f981610473565b82525050565b5f60c0820190506106125f830189610581565b818103602083015261062481886105b8565b905061063360408301876105f0565b61064060608301866105f0565b61064d60808301856105f0565b61065a60a08301846105f0565b979650505050505050565b61066e81610570565b8114610678575f80fd5b50565b5f8135905061068981610665565b92915050565b5f80604083850312156106a5576106a461032f565b5b5f6106b28582860161067b565b92505060206106c385828601610492565b9150509250929050565b5f6020820190506106e05f8301846105f0565b92915050565b7f596f752063616e206f72676e697a65204576656e7420666f72206675747572655f8201527f2044617465730000000000000000000000000000000000000000000000000000602082015250565b5f61074060268361059a565b915061074b826106e6565b604082019050919050565b5f6020820190508181035f83015261076d81610734565b9050919050565b7f546f74616c207469636b65747320666f7220616e204576656e742073686f756c5f8201527f64206265206d6f7265207468616e20657175616c20746f203100000000000000602082015250565b5f6107ce60398361059a565b91506107d982610774565b604082019050919050565b5f6020820190508181035f8301526107fb816107c2565b9050919050565b7f4e487b71000000000000000000000000000000000000000000000000000000005f52602260045260245ffd5b5f600282049050600182168061084657607f821691505b60208210810361085957610858610802565b5b50919050565b5f819050815f5260205f209050919050565b5f6020601f8301049050919050565b5f82821b905092915050565b5f600883026108bb7fffffffffffffffffffffffffffffffffffffffffffffffffffffffffffffffff82610880565b6108c58683610880565b95508019841693508086168417925050509392505050565b5f819050919050565b5f6109006108fb6108f684610473565b6108dd565b610473565b9050919050565b5f819050919050565b610919836108e6565b61092d61092582610907565b84845461088c565b825550505050565b5f90565b610941610935565b61094c818484610910565b505050565b5b8181101561096f576109645f82610939565b600181019050610952565b5050565b601f8211156109b4576109858161085f565b61098e84610871565b8101602085101561099d578190505b6109b16109a985610871565b830182610951565b50505b505050565b5f82821c905092915050565b5f6109d45f19846008026109b9565b1980831691505092915050565b5f6109ec83836109c5565b9150826002028217905092915050565b610a0582610590565b67ffffffffffffffff811115610a1e57610a1d61034f565b5b610a28825461082f565b610a33828285610973565b5f60209050601f831160018114610a64575f8415610a52578287015190505b610a5c85826109e1565b865550610ac3565b601f198416610a728661085f565b5f5b82811015610a9957848901518255600182019150602085019450602081019050610a74565b86831015610ab65784890151610ab2601f8916826109c5565b8355505b6001600288020188555050505b50505050505056fea2646970667358221220875c092e8c63e267c8a62b212469f41558711a4f43d230fa2ae1829fb09255ef64736f6c63430008190033",
					"opcodes": "PUSH1 0x80 PUSH1 0x40 MSTORE CALLVALUE DUP1 ISZERO PUSH1 0xE JUMPI PUSH0 DUP1 REVERT JUMPDEST POP PUSH2 0xB01 DUP1 PUSH2 0x1C PUSH0 CODECOPY PUSH0 RETURN INVALID PUSH1 0x80 PUSH1 0x40 MSTORE CALLVALUE DUP1 ISZERO PUSH2 0xF JUMPI PUSH0 DUP1 REVERT JUMPDEST POP PUSH1 0x4 CALLDATASIZE LT PUSH2 0x3F JUMPI PUSH0 CALLDATALOAD PUSH1 0xE0 SHR DUP1 PUSH4 0x374AB0B EQ PUSH2 0x43 JUMPI DUP1 PUSH4 0xB791430 EQ PUSH2 0x5F JUMPI DUP1 PUSH4 0xDAE7A13C EQ PUSH2 0x94 JUMPI JUMPDEST PUSH0 DUP1 REVERT JUMPDEST PUSH2 0x5D PUSH1 0x4 DUP1 CALLDATASIZE SUB DUP2 ADD SWAP1 PUSH2 0x58 SWAP2 SWAP1 PUSH2 0x4A6 JUMP JUMPDEST PUSH2 0xC4 JUMP JUMPDEST STOP JUMPDEST PUSH2 0x79 PUSH1 0x4 DUP1 CALLDATASIZE SUB DUP2 ADD SWAP1 PUSH2 0x74 SWAP2 SWAP1 PUSH2 0x526 JUMP JUMPDEST PUSH2 0x22A JUMP JUMPDEST PUSH1 0x40 MLOAD PUSH2 0x8B SWAP7 SWAP6 SWAP5 SWAP4 SWAP3 SWAP2 SWAP1 PUSH2 0x5FF JUMP JUMPDEST PUSH1 0x40 MLOAD DUP1 SWAP2 SUB SWAP1 RETURN JUMPDEST PUSH2 0xAE PUSH1 0x4 DUP1 CALLDATASIZE SUB DUP2 ADD SWAP1 PUSH2 0xA9 SWAP2 SWAP1 PUSH2 0x68F JUMP JUMPDEST PUSH2 0x306 JUMP JUMPDEST PUSH1 0x40 MLOAD PUSH2 0xBB SWAP2 SWAP1 PUSH2 0x6CD JUMP JUMPDEST PUSH1 0x40 MLOAD DUP1 SWAP2 SUB SWAP1 RETURN JUMPDEST TIMESTAMP DUP4 GT PUSH2 0x106 JUMPI PUSH1 0x40 MLOAD PUSH32 0x8C379A000000000000000000000000000000000000000000000000000000000 DUP2 MSTORE PUSH1 0x4 ADD PUSH2 0xFD SWAP1 PUSH2 0x756 JUMP JUMPDEST PUSH1 0x40 MLOAD DUP1 SWAP2 SUB SWAP1 REVERT JUMPDEST PUSH1 0x1 DUP2 LT ISZERO PUSH2 0x14A JUMPI PUSH1 0x40 MLOAD PUSH32 0x8C379A000000000000000000000000000000000000000000000000000000000 DUP2 MSTORE PUSH1 0x4 ADD PUSH2 0x141 SWAP1 PUSH2 0x7E4 JUMP JUMPDEST PUSH1 0x40 MLOAD DUP1 SWAP2 SUB SWAP1 REVERT JUMPDEST PUSH1 0x40 MLOAD DUP1 PUSH1 0xC0 ADD PUSH1 0x40 MSTORE DUP1 CALLER PUSH20 0xFFFFFFFFFFFFFFFFFFFFFFFFFFFFFFFFFFFFFFFF AND DUP2 MSTORE PUSH1 0x20 ADD DUP6 DUP2 MSTORE PUSH1 0x20 ADD DUP5 DUP2 MSTORE PUSH1 0x20 ADD DUP4 DUP2 MSTORE PUSH1 0x20 ADD DUP3 DUP2 MSTORE PUSH1 0x20 ADD DUP3 DUP2 MSTORE POP PUSH0 DUP1 PUSH1 0x2 SLOAD DUP2 MSTORE PUSH1 0x20 ADD SWAP1 DUP2 MSTORE PUSH1 0x20 ADD PUSH0 KECCAK256 PUSH0 DUP3 ADD MLOAD DUP2 PUSH0 ADD PUSH0 PUSH2 0x100 EXP DUP2 SLOAD DUP2 PUSH20 0xFFFFFFFFFFFFFFFFFFFFFFFFFFFFFFFFFFFFFFFF MUL NOT AND SWAP1 DUP4 PUSH20 0xFFFFFFFFFFFFFFFFFFFFFFFFFFFFFFFFFFFFFFFF AND MUL OR SWAP1 SSTORE POP PUSH1 0x20 DUP3 ADD MLOAD DUP2 PUSH1 0x1 ADD SWAP1 DUP2 PUSH2 0x1F8 SWAP2 SWAP1 PUSH2 0x9FC JUMP JUMPDEST POP PUSH1 0x40 DUP3 ADD MLOAD DUP2 PUSH1 0x2 ADD SSTORE PUSH1 0x60 DUP3 ADD MLOAD DUP2 PUSH1 0x3 ADD SSTORE PUSH1 0x80 DUP3 ADD MLOAD DUP2 PUSH1 0x4 ADD SSTORE PUSH1 0xA0 DUP3 ADD MLOAD DUP2 PUSH1 0x5 ADD SSTORE SWAP1 POP POP POP POP POP POP JUMP JUMPDEST PUSH0 PUSH1 0x20 MSTORE DUP1 PUSH0 MSTORE PUSH1 0x40 PUSH0 KECCAK256 PUSH0 SWAP2 POP SWAP1 POP DUP1 PUSH0 ADD PUSH0 SWAP1 SLOAD SWAP1 PUSH2 0x100 EXP SWAP1 DIV PUSH20 0xFFFFFFFFFFFFFFFFFFFFFFFFFFFFFFFFFFFFFFFF AND SWAP1 DUP1 PUSH1 0x1 ADD DUP1 SLOAD PUSH2 0x26D SWAP1 PUSH2 0x82F JUMP JUMPDEST DUP1 PUSH1 0x1F ADD PUSH1 0x20 DUP1 SWAP2 DIV MUL PUSH1 0x20 ADD PUSH1 0x40 MLOAD SWAP1 DUP2 ADD PUSH1 0x40 MSTORE DUP1 SWAP3 SWAP2 SWAP1 DUP2 DUP2 MSTORE PUSH1 0x20 ADD DUP3 DUP1 SLOAD PUSH2 0x299 SWAP1 PUSH2 0x82F JUMP JUMPDEST DUP1 ISZERO PUSH2 0x2E4 JUMPI DUP1 PUSH1 0x1F LT PUSH2 0x2BB JUMPI PUSH2 0x100 DUP1 DUP4 SLOAD DIV MUL DUP4 MSTORE SWAP2 PUSH1 0x20 ADD SWAP2 PUSH2 0x2E4 JUMP JUMPDEST DUP3 ADD SWAP2 SWAP1 PUSH0 MSTORE PUSH1 0x20 PUSH0 KECCAK256 SWAP1 JUMPDEST DUP2 SLOAD DUP2 MSTORE SWAP1 PUSH1 0x1 ADD SWAP1 PUSH1 0x20 ADD DUP1 DUP4 GT PUSH2 0x2C7 JUMPI DUP3 SWAP1 SUB PUSH1 0x1F AND DUP3 ADD SWAP2 JUMPDEST POP POP POP POP POP SWAP1 DUP1 PUSH1 0x2 ADD SLOAD SWAP1 DUP1 PUSH1 0x3 ADD SLOAD SWAP1 DUP1 PUSH1 0x4 ADD SLOAD SWAP1 DUP1 PUSH1 0x5 ADD SLOAD SWAP1 POP DUP7 JUMP JUMPDEST PUSH1 0x1 PUSH1 0x20 MSTORE DUP2 PUSH0 MSTORE PUSH1 0x40 PUSH0 KECCAK256 PUSH1 0x20 MSTORE DUP1 PUSH0 MSTORE PUSH1 0x40 PUSH0 KECCAK256 PUSH0 SWAP2 POP SWAP2 POP POP SLOAD DUP2 JUMP JUMPDEST PUSH0 PUSH1 0x40 MLOAD SWAP1 POP SWAP1 JUMP JUMPDEST PUSH0 DUP1 REVERT JUMPDEST PUSH0 DUP1 REVERT JUMPDEST PUSH0 DUP1 REVERT JUMPDEST PUSH0 DUP1 REVERT JUMPDEST PUSH0 PUSH1 0x1F NOT PUSH1 0x1F DUP4 ADD AND SWAP1 POP SWAP2 SWAP1 POP JUMP JUMPDEST PUSH32 0x4E487B7100000000000000000000000000000000000000000000000000000000 PUSH0 MSTORE PUSH1 0x41 PUSH1 0x4 MSTORE PUSH1 0x24 PUSH0 REVERT JUMPDEST PUSH2 0x385 DUP3 PUSH2 0x33F JUMP JUMPDEST DUP2 ADD DUP2 DUP2 LT PUSH8 0xFFFFFFFFFFFFFFFF DUP3 GT OR ISZERO PUSH2 0x3A4 JUMPI PUSH2 0x3A3 PUSH2 0x34F JUMP JUMPDEST JUMPDEST DUP1 PUSH1 0x40 MSTORE POP POP POP JUMP JUMPDEST PUSH0 PUSH2 0x3B6 PUSH2 0x326 JUMP JUMPDEST SWAP1 POP PUSH2 0x3C2 DUP3 DUP3 PUSH2 0x37C JUMP JUMPDEST SWAP2 SWAP1 POP JUMP JUMPDEST PUSH0 PUSH8 0xFFFFFFFFFFFFFFFF DUP3 GT ISZERO PUSH2 0x3E1 JUMPI PUSH2 0x3E0 PUSH2 0x34F JUMP JUMPDEST JUMPDEST PUSH2 0x3EA DUP3 PUSH2 0x33F JUMP JUMPDEST SWAP1 POP PUSH1 0x20 DUP2 ADD SWAP1 POP SWAP2 SWAP1 POP JUMP JUMPDEST DUP3 DUP2 DUP4 CALLDATACOPY PUSH0 DUP4 DUP4 ADD MSTORE POP POP POP JUMP JUMPDEST PUSH0 PUSH2 0x417 PUSH2 0x412 DUP5 PUSH2 0x3C7 JUMP JUMPDEST PUSH2 0x3AD JUMP JUMPDEST SWAP1 POP DUP3 DUP2 MSTORE PUSH1 0x20 DUP2 ADD DUP5 DUP5 DUP5 ADD GT ISZERO PUSH2 0x433 JUMPI PUSH2 0x432 PUSH2 0x33B JUMP JUMPDEST JUMPDEST PUSH2 0x43E DUP5 DUP3 DUP6 PUSH2 0x3F7 JUMP JUMPDEST POP SWAP4 SWAP3 POP POP POP JUMP JUMPDEST PUSH0 DUP3 PUSH1 0x1F DUP4 ADD SLT PUSH2 0x45A JUMPI PUSH2 0x459 PUSH2 0x337 JUMP JUMPDEST JUMPDEST DUP2 CALLDATALOAD PUSH2 0x46A DUP5 DUP3 PUSH1 0x20 DUP7 ADD PUSH2 0x405 JUMP JUMPDEST SWAP2 POP POP SWAP3 SWAP2 POP POP JUMP JUMPDEST PUSH0 DUP2 SWAP1 POP SWAP2 SWAP1 POP JUMP JUMPDEST PUSH2 0x485 DUP2 PUSH2 0x473 JUMP JUMPDEST DUP2 EQ PUSH2 0x48F JUMPI PUSH0 DUP1 REVERT JUMPDEST POP JUMP JUMPDEST PUSH0 DUP2 CALLDATALOAD SWAP1 POP PUSH2 0x4A0 DUP2 PUSH2 0x47C JUMP JUMPDEST SWAP3 SWAP2 POP POP JUMP JUMPDEST PUSH0 DUP1 PUSH0 DUP1 PUSH1 0x80 DUP6 DUP8 SUB SLT ISZERO PUSH2 0x4BE JUMPI PUSH2 0x4BD PUSH2 0x32F JUMP JUMPDEST JUMPDEST PUSH0 DUP6 ADD CALLDATALOAD PUSH8 0xFFFFFFFFFFFFFFFF DUP2 GT ISZERO PUSH2 0x4DB JUMPI PUSH2 0x4DA PUSH2 0x333 JUMP JUMPDEST JUMPDEST PUSH2 0x4E7 DUP8 DUP3 DUP9 ADD PUSH2 0x446 JUMP JUMPDEST SWAP5 POP POP PUSH1 0x20 PUSH2 0x4F8 DUP8 DUP3 DUP9 ADD PUSH2 0x492 JUMP JUMPDEST SWAP4 POP POP PUSH1 0x40 PUSH2 0x509 DUP8 DUP3 DUP9 ADD PUSH2 0x492 JUMP JUMPDEST SWAP3 POP POP PUSH1 0x60 PUSH2 0x51A DUP8 DUP3 DUP9 ADD PUSH2 0x492 JUMP JUMPDEST SWAP2 POP POP SWAP3 SWAP6 SWAP2 SWAP5 POP SWAP3 POP JUMP JUMPDEST PUSH0 PUSH1 0x20 DUP3 DUP5 SUB SLT ISZERO PUSH2 0x53B JUMPI PUSH2 0x53A PUSH2 0x32F JUMP JUMPDEST JUMPDEST PUSH0 PUSH2 0x548 DUP5 DUP3 DUP6 ADD PUSH2 0x492 JUMP JUMPDEST SWAP2 POP POP SWAP3 SWAP2 POP POP JUMP JUMPDEST PUSH0 PUSH20 0xFFFFFFFFFFFFFFFFFFFFFFFFFFFFFFFFFFFFFFFF DUP3 AND SWAP1 POP SWAP2 SWAP1 POP JUMP JUMPDEST PUSH0 PUSH2 0x57A DUP3 PUSH2 0x551 JUMP JUMPDEST SWAP1 POP SWAP2 SWAP1 POP JUMP JUMPDEST PUSH2 0x58A DUP2 PUSH2 0x570 JUMP JUMPDEST DUP3 MSTORE POP POP JUMP JUMPDEST PUSH0 DUP2 MLOAD SWAP1 POP SWAP2 SWAP1 POP JUMP JUMPDEST PUSH0 DUP3 DUP3 MSTORE PUSH1 0x20 DUP3 ADD SWAP1 POP SWAP3 SWAP2 POP POP JUMP JUMPDEST DUP3 DUP2 DUP4 MCOPY PUSH0 DUP4 DUP4 ADD MSTORE POP POP POP JUMP JUMPDEST PUSH0 PUSH2 0x5C2 DUP3 PUSH2 0x590 JUMP JUMPDEST PUSH2 0x5CC DUP2 DUP6 PUSH2 0x59A JUMP JUMPDEST SWAP4 POP PUSH2 0x5DC DUP2 DUP6 PUSH1 0x20 DUP7 ADD PUSH2 0x5AA JUMP JUMPDEST PUSH2 0x5E5 DUP2 PUSH2 0x33F JUMP JUMPDEST DUP5 ADD SWAP2 POP POP SWAP3 SWAP2 POP POP JUMP JUMPDEST PUSH2 0x5F9 DUP2 PUSH2 0x473 JUMP JUMPDEST DUP3 MSTORE POP POP JUMP JUMPDEST PUSH0 PUSH1 0xC0 DUP3 ADD SWAP1 POP PUSH2 0x612 PUSH0 DUP4 ADD DUP10 PUSH2 0x581 JUMP JUMPDEST DUP2 DUP2 SUB PUSH1 0x20 DUP4 ADD MSTORE PUSH2 0x624 DUP2 DUP9 PUSH2 0x5B8 JUMP JUMPDEST SWAP1 POP PUSH2 0x633 PUSH1 0x40 DUP4 ADD DUP8 PUSH2 0x5F0 JUMP JUMPDEST PUSH2 0x640 PUSH1 0x60 DUP4 ADD DUP7 PUSH2 0x5F0 JUMP JUMPDEST PUSH2 0x64D PUSH1 0x80 DUP4 ADD DUP6 PUSH2 0x5F0 JUMP JUMPDEST PUSH2 0x65A PUSH1 0xA0 DUP4 ADD DUP5 PUSH2 0x5F0 JUMP JUMPDEST SWAP8 SWAP7 POP POP POP POP POP POP POP JUMP JUMPDEST PUSH2 0x66E DUP2 PUSH2 0x570 JUMP JUMPDEST DUP2 EQ PUSH2 0x678 JUMPI PUSH0 DUP1 REVERT JUMPDEST POP JUMP JUMPDEST PUSH0 DUP2 CALLDATALOAD SWAP1 POP PUSH2 0x689 DUP2 PUSH2 0x665 JUMP JUMPDEST SWAP3 SWAP2 POP POP JUMP JUMPDEST PUSH0 DUP1 PUSH1 0x40 DUP4 DUP6 SUB SLT ISZERO PUSH2 0x6A5 JUMPI PUSH2 0x6A4 PUSH2 0x32F JUMP JUMPDEST JUMPDEST PUSH0 PUSH2 0x6B2 DUP6 DUP3 DUP7 ADD PUSH2 0x67B JUMP JUMPDEST SWAP3 POP POP PUSH1 0x20 PUSH2 0x6C3 DUP6 DUP3 DUP7 ADD PUSH2 0x492 JUMP JUMPDEST SWAP2 POP POP SWAP3 POP SWAP3 SWAP1 POP JUMP JUMPDEST PUSH0 PUSH1 0x20 DUP3 ADD SWAP1 POP PUSH2 0x6E0 PUSH0 DUP4 ADD DUP5 PUSH2 0x5F0 JUMP JUMPDEST SWAP3 SWAP2 POP POP JUMP JUMPDEST PUSH32 0x596F752063616E206F72676E697A65204576656E7420666F7220667574757265 PUSH0 DUP3 ADD MSTORE PUSH32 0x2044617465730000000000000000000000000000000000000000000000000000 PUSH1 0x20 DUP3 ADD MSTORE POP JUMP JUMPDEST PUSH0 PUSH2 0x740 PUSH1 0x26 DUP4 PUSH2 0x59A JUMP JUMPDEST SWAP2 POP PUSH2 0x74B DUP3 PUSH2 0x6E6 JUMP JUMPDEST PUSH1 0x40 DUP3 ADD SWAP1 POP SWAP2 SWAP1 POP JUMP JUMPDEST PUSH0 PUSH1 0x20 DUP3 ADD SWAP1 POP DUP2 DUP2 SUB PUSH0 DUP4 ADD MSTORE PUSH2 0x76D DUP2 PUSH2 0x734 JUMP JUMPDEST SWAP1 POP SWAP2 SWAP1 POP JUMP JUMPDEST PUSH32 0x546F74616C207469636B65747320666F7220616E204576656E742073686F756C PUSH0 DUP3 ADD MSTORE PUSH32 0x64206265206D6F7265207468616E20657175616C20746F203100000000000000 PUSH1 0x20 DUP3 ADD MSTORE POP JUMP JUMPDEST PUSH0 PUSH2 0x7CE PUSH1 0x39 DUP4 PUSH2 0x59A JUMP JUMPDEST SWAP2 POP PUSH2 0x7D9 DUP3 PUSH2 0x774 JUMP JUMPDEST PUSH1 0x40 DUP3 ADD SWAP1 POP SWAP2 SWAP1 POP JUMP JUMPDEST PUSH0 PUSH1 0x20 DUP3 ADD SWAP1 POP DUP2 DUP2 SUB PUSH0 DUP4 ADD MSTORE PUSH2 0x7FB DUP2 PUSH2 0x7C2 JUMP JUMPDEST SWAP1 POP SWAP2 SWAP1 POP JUMP JUMPDEST PUSH32 0x4E487B7100000000000000000000000000000000000000000000000000000000 PUSH0 MSTORE PUSH1 0x22 PUSH1 0x4 MSTORE PUSH1 0x24 PUSH0 REVERT JUMPDEST PUSH0 PUSH1 0x2 DUP3 DIV SWAP1 POP PUSH1 0x1 DUP3 AND DUP1 PUSH2 0x846 JUMPI PUSH1 0x7F DUP3 AND SWAP2 POP JUMPDEST PUSH1 0x20 DUP3 LT DUP2 SUB PUSH2 0x859 JUMPI PUSH2 0x858 PUSH2 0x802 JUMP JUMPDEST JUMPDEST POP SWAP2 SWAP1 POP JUMP JUMPDEST PUSH0 DUP2 SWAP1 POP DUP2 PUSH0 MSTORE PUSH1 0x20 PUSH0 KECCAK256 SWAP1 POP SWAP2 SWAP1 POP JUMP JUMPDEST PUSH0 PUSH1 0x20 PUSH1 0x1F DUP4 ADD DIV SWAP1 POP SWAP2 SWAP1 POP JUMP JUMPDEST PUSH0 DUP3 DUP3 SHL SWAP1 POP SWAP3 SWAP2 POP POP JUMP JUMPDEST PUSH0 PUSH1 0x8 DUP4 MUL PUSH2 0x8BB PUSH32 0xFFFFFFFFFFFFFFFFFFFFFFFFFFFFFFFFFFFFFFFFFFFFFFFFFFFFFFFFFFFFFFFF DUP3 PUSH2 0x880 JUMP JUMPDEST PUSH2 0x8C5 DUP7 DUP4 PUSH2 0x880 JUMP JUMPDEST SWAP6 POP DUP1 NOT DUP5 AND SWAP4 POP DUP1 DUP7 AND DUP5 OR SWAP3 POP POP POP SWAP4 SWAP3 POP POP POP JUMP JUMPDEST PUSH0 DUP2 SWAP1 POP SWAP2 SWAP1 POP JUMP JUMPDEST PUSH0 PUSH2 0x900 PUSH2 0x8FB PUSH2 0x8F6 DUP5 PUSH2 0x473 JUMP JUMPDEST PUSH2 0x8DD JUMP JUMPDEST PUSH2 0x473 JUMP JUMPDEST SWAP1 POP SWAP2 SWAP1 POP JUMP JUMPDEST PUSH0 DUP2 SWAP1 POP SWAP2 SWAP1 POP JUMP JUMPDEST PUSH2 0x919 DUP4 PUSH2 0x8E6 JUMP JUMPDEST PUSH2 0x92D PUSH2 0x925 DUP3 PUSH2 0x907 JUMP JUMPDEST DUP5 DUP5 SLOAD PUSH2 0x88C JUMP JUMPDEST DUP3 SSTORE POP POP POP POP JUMP JUMPDEST PUSH0 SWAP1 JUMP JUMPDEST PUSH2 0x941 PUSH2 0x935 JUMP JUMPDEST PUSH2 0x94C DUP2 DUP5 DUP5 PUSH2 0x910 JUMP JUMPDEST POP POP POP JUMP JUMPDEST JUMPDEST DUP2 DUP2 LT ISZERO PUSH2 0x96F JUMPI PUSH2 0x964 PUSH0 DUP3 PUSH2 0x939 JUMP JUMPDEST PUSH1 0x1 DUP2 ADD SWAP1 POP PUSH2 0x952 JUMP JUMPDEST POP POP JUMP JUMPDEST PUSH1 0x1F DUP3 GT ISZERO PUSH2 0x9B4 JUMPI PUSH2 0x985 DUP2 PUSH2 0x85F JUMP JUMPDEST PUSH2 0x98E DUP5 PUSH2 0x871 JUMP JUMPDEST DUP2 ADD PUSH1 0x20 DUP6 LT ISZERO PUSH2 0x99D JUMPI DUP2 SWAP1 POP JUMPDEST PUSH2 0x9B1 PUSH2 0x9A9 DUP6 PUSH2 0x871 JUMP JUMPDEST DUP4 ADD DUP3 PUSH2 0x951 JUMP JUMPDEST POP POP JUMPDEST POP POP POP JUMP JUMPDEST PUSH0 DUP3 DUP3 SHR SWAP1 POP SWAP3 SWAP2 POP POP JUMP JUMPDEST PUSH0 PUSH2 0x9D4 PUSH0 NOT DUP5 PUSH1 0x8 MUL PUSH2 0x9B9 JUMP JUMPDEST NOT DUP1 DUP4 AND SWAP2 POP POP SWAP3 SWAP2 POP POP JUMP JUMPDEST PUSH0 PUSH2 0x9EC DUP4 DUP4 PUSH2 0x9C5 JUMP JUMPDEST SWAP2 POP DUP3 PUSH1 0x2 MUL DUP3 OR SWAP1 POP SWAP3 SWAP2 POP POP JUMP JUMPDEST PUSH2 0xA05 DUP3 PUSH2 0x590 JUMP JUMPDEST PUSH8 0xFFFFFFFFFFFFFFFF DUP2 GT ISZERO PUSH2 0xA1E JUMPI PUSH2 0xA1D PUSH2 0x34F JUMP JUMPDEST JUMPDEST PUSH2 0xA28 DUP3 SLOAD PUSH2 0x82F JUMP JUMPDEST PUSH2 0xA33 DUP3 DUP3 DUP6 PUSH2 0x973 JUMP JUMPDEST PUSH0 PUSH1 0x20 SWAP1 POP PUSH1 0x1F DUP4 GT PUSH1 0x1 DUP2 EQ PUSH2 0xA64 JUMPI PUSH0 DUP5 ISZERO PUSH2 0xA52 JUMPI DUP3 DUP8 ADD MLOAD SWAP1 POP JUMPDEST PUSH2 0xA5C DUP6 DUP3 PUSH2 0x9E1 JUMP JUMPDEST DUP7 SSTORE POP PUSH2 0xAC3 JUMP JUMPDEST PUSH1 0x1F NOT DUP5 AND PUSH2 0xA72 DUP7 PUSH2 0x85F JUMP JUMPDEST PUSH0 JUMPDEST DUP3 DUP2 LT ISZERO PUSH2 0xA99 JUMPI DUP5 DUP10 ADD MLOAD DUP3 SSTORE PUSH1 0x1 DUP3 ADD SWAP2 POP PUSH1 0x20 DUP6 ADD SWAP5 POP PUSH1 0x20 DUP2 ADD SWAP1 POP PUSH2 0xA74 JUMP JUMPDEST DUP7 DUP4 LT ISZERO PUSH2 0xAB6 JUMPI DUP5 DUP10 ADD MLOAD PUSH2 0xAB2 PUSH1 0x1F DUP10 AND DUP3 PUSH2 0x9C5 JUMP JUMPDEST DUP4 SSTORE POP JUMPDEST PUSH1 0x1 PUSH1 0x2 DUP9 MUL ADD DUP9 SSTORE POP POP POP JUMPDEST POP POP POP POP POP POP JUMP INVALID LOG2 PUSH5 0x6970667358 0x22 SLT KECCAK256 DUP8 TLOAD MULMOD 0x2E DUP13 PUSH4 0xE267C8A6 0x2B 0x21 0x24 PUSH10 0xF41558711A4F43D230FA 0x2A 0xE1 DUP3 SWAP16 0xB0 SWAP3 SSTORE 0xEF PUSH5 0x736F6C6343 STOP ADDMOD NOT STOP CALLER "
				},
				"gasEstimates": {
					"creation": {
						"codeDepositCost": "563400",
						"executionCost": "598",
						"totalCost": "563998"
					},
					"external": {
						"createEvent(string,uint256,uint256,uint256)": "infinite",
						"events(uint256)": "infinite",
						"tickets(address,uint256)": "infinite"
					}
				},
				"methodIdentifiers": {
					"createEvent(string,uint256,uint256,uint256)": "0374ab0b",
					"events(uint256)": "0b791430",
					"tickets(address,uint256)": "dae7a13c"
				}
			},
			"storageLayout": {
				"storage": [
					{
						"astId": 19,
						"contract": "event.sol:EventOrganization",
						"label": "events",
						"offset": 0,
						"slot": "0",
						"type": "t_mapping(t_uint256,t_struct(Event)14_storage)"
					},
					{
						"astId": 25,
						"contract": "event.sol:EventOrganization",
						"label": "tickets",
						"offset": 0,
						"slot": "1",
						"type": "t_mapping(t_address,t_mapping(t_uint256,t_uint256))"
					},
					{
						"astId": 27,
						"contract": "event.sol:EventOrganization",
						"label": "nextId",
						"offset": 0,
						"slot": "2",
						"type": "t_uint256"
					}
				],
				"types": {
					"t_address": {
						"encoding": "inplace",
						"label": "address",
						"numberOfBytes": "20"
					},
					"t_mapping(t_address,t_mapping(t_uint256,t_uint256))": {
						"encoding": "mapping",
						"key": "t_address",
						"label": "mapping(address => mapping(uint256 => uint256))",
						"numberOfBytes": "32",
						"value": "t_mapping(t_uint256,t_uint256)"
					},
					"t_mapping(t_uint256,t_struct(Event)14_storage)": {
						"encoding": "mapping",
						"key": "t_uint256",
						"label": "mapping(uint256 => struct EventOrganization.Event)",
						"numberOfBytes": "32",
						"value": "t_struct(Event)14_storage"
					},
					"t_mapping(t_uint256,t_uint256)": {
						"encoding": "mapping",
						"key": "t_uint256",
						"label": "mapping(uint256 => uint256)",
						"numberOfBytes": "32",
						"value": "t_uint256"
					},
					"t_string_storage": {
						"encoding": "bytes",
						"label": "string",
						"numberOfBytes": "32"
					},
					"t_struct(Event)14_storage": {
						"encoding": "inplace",
						"label": "struct EventOrganization.Event",
						"members": [
							{
								"astId": 3,
								"contract": "event.sol:EventOrganization",
								"label": "organizer",
								"offset": 0,
								"slot": "0",
								"type": "t_address"
							},
							{
								"astId": 5,
								"contract": "event.sol:EventOrganization",
								"label": "eventName",
								"offset": 0,
								"slot": "1",
								"type": "t_string_storage"
							},
							{
								"astId": 7,
								"contract": "event.sol:EventOrganization",
								"label": "date",
								"offset": 0,
								"slot": "2",
								"type": "t_uint256"
							},
							{
								"astId": 9,
								"contract": "event.sol:EventOrganization",
								"label": "price",
								"offset": 0,
								"slot": "3",
								"type": "t_uint256"
							},
							{
								"astId": 11,
								"contract": "event.sol:EventOrganization",
								"label": "totalTicket",
								"offset": 0,
								"slot": "4",
								"type": "t_uint256"
							},
							{
								"astId": 13,
								"contract": "event.sol:EventOrganization",
								"label": "ticketRemain",
								"offset": 0,
								"slot": "5",
								"type": "t_uint256"
							}
						],
						"numberOfBytes": "192"
					},
					"t_uint256": {
						"encoding": "inplace",
						"label": "uint256",
						"numberOfBytes": "32"
					}
				}
			},
			"userdoc": {
				"kind": "user",
				"methods": {},
				"version": 1
			}
		}
	}
}